:020000040800F2
:1000000000A0002091250008D9250008D925000866
:10001000D9250008D9250008D925000800000000CE
:10002000000000000000000000000000D9250008CA
:10003000D925000800000000D9250008D9250008AE
:1000400000000000000000000000000000000000B0
:1000500000000000000000000000000000000000A0
:100060000000000000000000000000000000000090
:100070000000000000000000000000000000000080
:100080000000000000000000000000000000000070
:100090000000000000000000000000000000000060
:1000A0000000000000000000000000000000000050
:1000B0000000000000000000000000000000000040
:1000C0000000000000000000000000000000000030
:1000D0000000000000000000000000000000000020
:1000E0000000000000000000000000000000000010
:1000F0000000000000000000000000000000000000
:1001000000000000000000000000000000000000EF
:1001100000000000000000000000000000000000DF
:1001200000000000000000000000000000000000CF
:1001300000000000000000000000000000000000BF
:1001400000000000000000000000000000000000AF
:10015000000000000000000000000000000000009F
:10016000000000000000000000000000000000008F
:10017000000000000000000000000000000000007F
:08018000000000000000000077
:100188000348044B834202D0034B03B1184770471E
:100198000400002004000020000000000548064973
:1001A8000B1AD90F01EBA301491002D0034B03B17D
:1001B80018477047040000200400002000000000D9
:1001C80010B5064C237843B9FFF7DAFF044B13B197
:1001D8000448AFF300800123237010BD0400002001
:1001E80000000000DC25000808B5044B1BB10449D9
:1001F8000448AFF30080BDE80840CFE700000000E6
:1002080008000020DC25000842F64F34C0F6000440
:1002180042F64F45C0F60005E75D3E464FEA072720
:1002280086EA07064FEA072786EA07064FEA0727FE
:1002380086EA07074FF001324FF0000A03B402982C
:100248004FF00101016003BC03B40298016801F199
:1002580001014229016003BC2ED054F8046B86FAD0
:1002680047F6A2FA8AF886FA48F6B04608F0FF0878
:1002780015F80880C3464FEA162808F0FF0815F855
:1002880008804FEA08288BEA080B4FEA164808F05E
:10029800FF0815F808804FEA08488BEA080B4FEA70
:1002A800166808F0FF0815F808804FEA08688BEA16
:1002B800080B43F804BBC7E7A3F580734FF00006AB
:1002C8001E707047009B03F51373009D05F50275BA
:1002D800009E06F5177603B402984FF001010160FD
:1002E80003BC03B40298016801F1010112290160FD
:1002F80003BC08D012F8014B03F8014B15F8014B69
:1003080006F8014BEDE77047DDF8008008F10808B2
:10031800009F07F1B807DDF800C00CF5BA7C03B4FC
:1003280002984FF00101016003BC03B40298016810
:1003380001F101011229016003BC0AD017F8014B31
:1003480011F8013B1CF8033083EA040408F8014B58
:10035800EBE77047DDF8008008F1B80803B40298AD
:100368004FF00101016003BC03B40298016801F178
:1003780001011229016003BC04D012F8014B08F8EE
:10038800014BF1E7DDF8008008F5B47812F8015B5D
:1003980088F8005088F8015088F8025088F803500F
:1003A800DDF8008008F5B67812F8015B88F800508F
:1003B80088F8015088F8025088F80350DDF800806A
:1003C80008F5B878177888F800707047009B03F52F
:1003D800027303B402984FF00101016003BC03B437
:1003E8000298016801F101011229016003BC04D0DF
:1003F80011F8014B03F8014BF1E7009F07F510775F
:1004080011F8015B3D707D70BD70FD703D68009F07
:1004180007F5117711F8015B3D707D70BD70FD70B7
:100428003D68009D05F512750F782F707047A4463A
:1004380003B402984FF00101016003BC03B40298B1
:10044800016801F101014229016003BC2ED054F872
:10045800046B86EA010606F0FF0012F8017B1CF81F
:10046800077087EA08071F544FEA162000F0FF00BC
:1004780012F8017B1CF8077087EA08071F544FEA37
:10048800164000F0FF0012F8017B1CF8077087EA9D
:1004980008071F544FEA166000F0FF0012F8017BAE
:1004A8001CF8077087EA08071F54C7E77047A25D62
:1004B80002F003024FF0000503B402984FF0010167
:1004C800016003BC03B40298016801F10101062927
:1004D800016003BC06D085EA020600F8016B05F14D
:1004E8000105EFE7704742F64F55C0F6000514F8CE
:1004F800011B01F00F0114F8018B08F00F0814F824
:1005080001BB0BF00F0B14F801AB0AF00F0A4FF008
:10051800000003B402984FF00101016003BC03B46A
:100528000298016801F101011229016003BC1ED083
:1005380080EA0107EF5D87EA0807EF5D87EA0B07A6
:10054800EF5D87EA0A07EF5D02F8017B87EA01079A
:10055800EF5D87EA0807EF5D87EA0B07EF5D87EA3B
:100568000A07EF5D03F8017B00F10100D7E7704748
:1005780003B402984FF00101016003BC03B4029870
:10058800016801F101011229016003BC0CD015F8C2
:10059800010B1C5C1AF8006084EA060418F8044091
:1005A80084EA06041C54E9E73F681E6886EA0706E1
:1005B8001E605E6886EA07065E609E6886EA070631
:1005C8009E60DE6886EA0706DE607047009D05F5D6
:1005D800067503B402984FF00101016003BC03B42F
:1005E8000298016801F101011229016003BC07D0DA
:1005F80015F8016B13F80680A65D07F80680EEE78C
:10060800009D05F5067503B402984FF001010160DD
:1006180003BC03B40298016801F1010112290160C9
:1006280003BC06D015F8016B17F8068003F806809E
:10063800EFE7009D05F50A7503B402984FF0010134
:10064800016003BC03B40298016801F10101122999
:10065800016003BC07D015F8016B1AF80680A65D87
:1006680007F80680EEE7009D05F50A7503B40298C1
:100678004FF00101016003BC03B40298016801F165
:1006880001011229016003BC06D015F8016B17F8A7
:1006980006800AF80680EFE7704703B402984FF027
:1006A8000101016003BC03B40298016801F1010172
:1006B8000629016003BC35D010F8018B4FEA880881
:1006C8000AEB080393F8008093F801B088EA0B045A
:1006D8009A7884EA0204DD7884EA050488EA0B073C
:1006E800F75D87EA080787EA040703F8017B8BEAC6
:1006F8000207F75D87EA0B0787EA040703F8017B1F
:1007080082EA0507BF5D87EA020787EA040703F85C
:10071800017B88EA0507F75D87EA050787EA04078A
:100728001F70C0E7704703B402984FF001010160E1
:1007380003BC03B40298016801F1010106290160B4
:1007480003BC35D0009A02F55B7210F8018B4FEAB2
:1007580088080AEB0803424493F8008093F801B034
:1007680088EA0B049E7884EA0604DD7888EA06089D
:1007780084EA050442F64F26C0F60006345D42F6C8
:100788004F16C0F6000616F8088088EA040802F832
:10079800028B82F80080A2F101028BEA050816F8A4
:1007A800088088EA040802F8028B82F80080C0E713
:1007B8007047D1F80C804FEA382841F8108FD7F8E5
:1007C8000C804FEA38283E4606F11006C6F800802D
:1007D80003B402984FF00101016003BC03B402980E
:1007E800016801F101010629016003BC11D013F869
:1007F800014B11F804C08CEA0B0C305D8CEA000C3C
:1008080015F80CC08CEA000C8CEA0A0C01F804C03C
:10081800E4E78C46DCF8004052F8048B84EA0804CC
:10082800ACF11008D8F8008084EA0804ACF10C0692
:100838004CF8044B56F8048B84EA08044CF8044B33
:1008480056F8048B84EA08044CF8044B56F8048BD9
:1008580084EA0804CCF800403C69D7F8008084EAB0
:1008680008043C61D7F8048084EA08047C61D7F85E
:10087800088084EA0804BC61D7F80C8084EA08047C
:10088800FC61A3F10403704742F64F30C0F6000044
:1008980042F64F41C0F600011278825C82F0FF02F6
:1008A8001B7810F803A092444FEA1A2292440AF0E7
:1008B800FF0A11F80A70704703B402984FF001015B
:1008C800016003BC03B40298016801F10101122917
:1008D800016003BC07D01E7817F8018B86EA08066A
:1008E80003F8016BEEE7A3F11003704703B4029815
:1008F8004FF00101016003BC03B40298016801F1E3
:1009080001011229016003BC04D013F8015B07F848
:10091800015BF1E7704703B402984FF001010160F1
:1009280003BC03B40298016801F1010112290160B6
:1009380003BC05D01E781CF8066003F8016BF0E7CD
:10094800704703B402984FF00101016003BC03B47F
:100958000298016801F101011229016003BC18D055
:1009680097F800B01BF800A092444FEA1A24A2445A
:100978000AEA0C0A1AF80160BBF1000FC8BF4FF071
:10098800FF0A08BF0026B8BF4FF0000A07F8016B3E
:10099800DDE7704742F62704C0F60004DDF8008062
:1009A80008F55E7803B402984FF00101016003BCBA
:1009B80003B40298016801F101010C29016003BC2C
:1009C80006D014F8046B1CF8066048F8046BEFE7CF
:1009D8007047009A02F5177203B402984FF00101AC
:1009E800016003BC03B40298016801F101011229F6
:1009F800016003BC14D015F8014B12F804B01CF8C0
:100A08000460865D8BEA060B02F804B013F804B0A4
:100A180018F80460865D8BEA060B03F804B0E1E77A
:100A280070473D681E6886EA05061E605E6886EAAD
:100A380005065E609E6886EA05069E60DE6886EAB0
:100A48000506DE6070474DF804ED2DE9FE1F4DF8F0
:100A5800040DFFF77FFC009B03F5BA73009F07F5B1
:100A6800B8773F78FFF7D0FBDDF800C00CF5BA7C0B
:100A7800FFF790FFFFF748FC009C04F1B8040098CA
:100A880000F55D704FF00006FFF711FD42F20762B6
:100A9800C0F60002009B03F51D73009C04F5BA74B0
:100AA800DDF8008008F5B478D8F80010009E06F547
:100AB800B67696F80080FFF7BAFC009901F10801B4
:100AC800009F07F1B807009D05F51D75009A02F50E
:100AD8005E72009B03F55D7303B402984FF0010149
:100AE800416003BC03B40298416801F101010C297B
:100AF800416003BC10D0DDF800B00BF5B47B9BF867
:100B080000B0DDF800A00AF5B67A9AF800A0FFF761
:100B180050FE07F11007E5E701BC4FF00000BDE803
:100B2800FE1F00BD70474DF804ED2DE9FC1F4DF880
:100B3800041D4DF8040DFFF749FC009B03F1080361
:100B4800009F07F512773F78FFF75EFB009C04F5DE
:100B58000274009800F50E704FF00006FFF7A7FC2E
:100B6800009800F50F704FF00106FFF7A0FC009AFF
:100B780002F50672009B03F50A73FFF7B4FC42F214
:100B88000762C0F60002009B03F58473009C04F121
:100B98000804A446DDF8008008F51078D8F800109D
:100BA800009E06F5117696F80080FFF740FC01BC20
:100BB80002BCBDE8FC1F4FF0000000BD70474DF8B7
:100BC80004ED2DE9FC1F4DF8041D4DF8040DFFF749
:100BD800FDFB009B03F10803009F07F512773F78A0
:100BE800FFF712FB009C04F50274009800F50E70E4
:100BF8004FF00006FFF75BFC009800F50F704FF010
:100C08000106FFF754FC009A02F50672009B03F5F3
:100C18000A73FFF768FC42F20772C0F60002009BF5
:100C280003F58473009C04F10804A446DDF80080F1
:100C380008F51078D8F80010009E06F5117696F899
:100C48000080FFF7F4FB01BC02BCBDE8FC1F4FF0BD
:100C5800000000BD70474DF804ED4DF8042D2DE956
:100C6800F01F4DF8043D4DF8041D4DF8040DFFF735
:100C780029FB019A02F5B872009B03F51273FFF77E
:100C880003FE009B03F51B73FFF7BEFA009B03F5F9
:100C98001373DDF800C00CF1080CFFF73CFE009B55
:100CA80003F51373009F07F51777FFF705FE009804
:100CB80000F51B70019901F108018846DDF804C0B0
:100CC8000CF1B80C009B03F51373009D05F5067530
:100CD800FFF77FFE03B402984FF00101416003BCA7
:100CE80003B40298416801F101010B29416003BC7A
:100CF80043D0009F07F51077009B03F51373FFF7A8
:100D080090FE009D05F50675DDF8008008F58478ED
:100D1800DDF800A00AF5177A009F07F51177FFF7AD
:100D280027FC42F60704C0F60004009F07F55B772E
:100D3800FFF74CFC009800F50E7042F64F06C0F61F
:100D48000006FFF7AAFC009800F50F70DDF800A078
:100D58000AF5137AFFF7A1FC01F110010CF1100C50
:100D68008846009B03F51373009D05F506750098EA
:100D780000F51B70FFF72DFEB2E7009F07F510770F
:100D8800009B03F51373FFF74CFE009D05F50675F0
:100D9800DDF8008008F58478DDF800A00AF5177AF8
:100DA800009F07F51177FFF7E3FB42F60704C0F64B
:100DB8000004009F07F55B77FFF708FC01F11001BD
:100DC8000CF1100C8846009D05F50675009800F595
:100DD8001B70FFF7FEFD009F07F51777009B03F5D3
:100DE8001373FFF769FD42F64F30C0F6000042F674
:100DF8004F41C0F60001009C04F512742278825C11
:100E08004FF0FF0CACEB02021F46FFF79AFD029F62
:100E1800FFF76CFD01BC4FF0000002BC08BCBDE848
:100E2800F01F04BC00BD70474DF804ED4DF8042DCB
:100E38002DE9F01F4DF8043D4DF8041D4DF8040D43
:100E4800FFF740FA019A02F5B872009B03F5127396
:100E5800FFF71AFD009B03F51B73FFF7D5F9009BFD
:100E680003F51373DDF800C00CF1080CFFF753FD10
:100E7800009B03F51373009F07F51777FFF71CFD19
:100E8800009800F51B70019901F1080101F1A0011A
:100E9800DDF804C00CF1B80C0CF1A00C009B03F5B4
:100EA8001373009D05F506758846FFF792FD03B498
:100EB80002984FF00101416003BC03B402984168F5
:100EC80001F101010B29416003BC6ED0009B03F5C1
:100ED800137342F61704C0F60004009F07F55B770A
:100EE800DDF800A00AF5177AFFF770FB009F07F5F9
:100EF8001077FFF796FDDDF800A00AF5177ADDF800
:100F0800008008F58478009D05F50675009F07F5B3
:100F18001177FFF72DFBACF1100CA1F110018846F9
:100F2800009D05F50675009800F51B70FFF751FD4B
:100F3800DDF800A00AF5177A009800F50F70FFF7A2
:100F4800F2FBDDF800A00AF5177A009800F50F709B
:100F580042F64F06C0F60006FFF79FFB009F07F515
:100F68005B77009B03F51773FFF7A6FCDDF800A07D
:100F78000AF5137A009800F50E70FFF7D4FBDDF838
:100F880000A00AF5137A42F64F06C0F6000600984C
:100F980000F50E70FFF781FB009F07F55B77009B5C
:100FA80003F51373FFF788FC87E7009B03F51373BA
:100FB80042F61704C0F60004009F07F55B77DDF8DA
:100FC80000A00AF5177AFFF701FB009F07F51077D5
:100FD800FFF727FDDDF800A00AF5177ADDF8008095
:100FE80008F58478009D05F50675009F07F51177CB
:100FF800FFF7BEFAACF1100CA1F110018846009D74
:1010080005F50675009800F51B70FFF7E2FC009FD8
:1010180007F51777FFF750FC42F64F30C0F600008F
:1010280042F64F41C0F60001009C04F51274227884
:10103800825C4FF0FF0CACEB02021F46FFF781FC0D
:10104800029FFFF753FC01BC4FF0000002BC08BC34
:10105800BDE8F01F04BC00BD7047000070B50D4E20
:101068000D4D761BB61006D0002455F8043B01340C
:101078009847A642F9D1094E094D761B01F0AAFA04
:10108800B61006D0002455F8043B01349847A64210
:10109800F9D170BD702D0008702D0008742D00085E
:1010A800702D0008002070470388024A5BBA13803D
:1010B800002070470000002008B501F0E9F8002082
:1010C80008BD08B501F0B6F8002008BD10B5044603
:1010D80001F0C6F800F048FA204601F0C3F800F025
:1010E8004AFA204601F0BDF822461021722000F08D
:1010F800DBF8002010BD000070B5044601F0B0F820
:101108000B4E00253388AB4209D8204601F0A9F8D8
:1011180022461021722000F0C7F8002070BD00F0B0
:1011280023FA204601F09EF8013500F024FAE9E799
:10113800000000201FB51E4B6A4603F11006154635
:1011480018685968144603C40833B3422246F7D1D5
:1011580000F068F900F0A6F900F0E2F901F05CF897
:10116800284601F067F800F089F8124A10216B2030
:1011780000F080F8104A1021702000F07BF80F4A28
:101188000021782000F076F80D4A012312216D2005
:1011980000F05AF80B4A0221732000F06BF80A4A53
:1011A8001021662000F066F800F0D8F8FCE700BFD0
:1011B8005F2D0008CB100008D5100008AD100008FE
:1011C800C1100008B1100008011100080120704783
:1011D800F0B500254F1C854201DB002021E017F8FF
:1011E800154011F81530A4F13006F6B2092E0CD8C6
:1011F8001670A3F13004E6B2092E15D8137843EA25
:101208000413137001350132E5E7A4F14106052EF8
:1012180002D8373C1470ECE7A4F16106052E01D919
:101228000120F0BD573CF5E7A3F14104052C02D895
:10123800A3F13704E2E7A3F16104052CF0D8147890
:10124800573B44EA0313DCE770B5094E34680F2CAA
:101258000BDCFF2909D806EB0415C5E90212013495
:1012680028712B743460002070BD0120FCE700BF9A
:10127800200000200023FFF7E7BF000008B5074A59
:1012880000217620FFF7F6FF054A7720FFF7F2FFE7
:10129800BDE80840034A7920FFF7ECBFD5110008E4
:1012A80015130008F1120008F8B514460E4600F0B0
:1012B80083F90C4F651EC4F1010463199E4204DCD6
:1012C800BDE8F8400A2000F077B915F8013F1B097E
:1012D800F85C00F071F92B7803F00F03F85C00F06C
:1012E8006BF9EAE7F425000807B5074B0DF107028B
:1012F8001B688DF8073001217220FFF7D5FF002009
:1013080003B05DF804FB00BF2000002070B5124C4C
:1013180021688CB0CDB20020C3B2AB4200F101000D
:1013280009DB01EB41016A46C9B27220FFF7BCFF35
:1013380000200CB070BD03EB4302303204EB031302
:101348006A441E7902F8306C9E681B7C02F82F6C88
:1013580002F82E3CE0E700BF200000202DE9F04114
:101368002F4DADF5427D00F00DF92A46002352F8C5
:10137800041B994204DC07D10DF5427DBDE8F081DC
:101388001C01A45C84423ED105EB03141E01237C9E
:10139800DB0714D500238DF8083000F0F3F88DF83A
:1013A800080100F0EFF802AA8DF8090142A901200E
:1013B800FFF70EFF0028DFD19DF80830A36042AF89
:1013C800002405EB0608D8F80830B4EB430F1CD30B
:1013D80000F0D8F80A2801D00D28CDD1354402AA4A
:1013E800AC6842A92046FFF7F3FE0028C4D1E1B259
:1013F800EB6802A8984701AA8DF8040001217A2019
:10140800FFF752FFB8E70133B3E700F0BBF80A284B
:10141800B2D00D28B0D007F8010B0134D3E700BFD4
:101428002000002070B596B0002403264FF4A023B6
:101438000CA80125CDE90C631094149400F0D4F89D
:101448000F23214602A8CDE90235CDE904440694CC
:1014580000F038FB114B5A6942F400225A615B696B
:10146800CDE9094603F400230D4C0193019B07A91C
:101478004FF4C0432046CDE9073500F0C9FB2A46A2
:1014880020464FF4005100F087FC2A464FF4804173
:10149800204600F081FC16B070BD00BF001002406D
:1014A8000008004810B54FF4C06288B00223CDE9A7
:1014B800032301210323CDE90513164C07230793C2
:1014C800636943F400336361636903F40033019390
:1014D80003A94FF09040019B00F09AFB0E48DFF8FB
:1014E8003CC04FF41643C0E900C30023C0E90233EF
:1014F800036183610C234361A36943F48043A361BF
:10150800A36903F480430293029B00F099FD08B09D
:1015180010BD00BF00100240240100200038014027
:10152800104B30B55A6942F400325A615B6987B092
:1015380003F400330093009B4FF480540123CDE95A
:1015480001430025032301A94FF09040CDE903533F
:1015580000F05EFB2A4621464FF0904000F01CFC4C
:1015680007B030BD0010024001224FF480514FF007
:10157800904000F011BC00224FF480514FF0904091
:1015880000F00ABC37B50A4D0A4C41F288330122F3
:101598000DF10701284600F0D4FD18B99DF80700A1
:1015A80003B030BD236A43F008032362EDE700BFB0
:1015B800240100200038014007B541F288338DF836
:1015C800070001220DF10701024800F064FD03B095
:1015D8005DF804FB24010020024B1868421C1A60C5
:1015E800704700BF9401002003682DE9F341D90733
:1015F800044611D423689A0700F1868023681E07E1
:1016080000F1F48023685D0700F14081E269002A57
:1016180040F0CB81002021E09A494B6803F00C038D
:10162800042B07D04B6803F00C03082B19D14B6827
:10163800DB0316D54FF4003393FAA3F2096893FA43
:10164800A3F3B3FA83F303F01F03012202FA03F3AF
:101658000B42CFD06368002BCCD1012002B0BDE88B
:10166800F0816268B2F5803F24D10B6843F480337F
:101678000B60CB6AA06823F00F030343CB624AB325
:10168800FFF7AAFF4FF400360546012796FAA6F39E
:101698000A6896FAA6F3B3FA83F303F01F0307FA6E
:1016A80003F31342A6D1FFF797FF401B6428EDD937
:1016B8000320D3E70B6832B923F480330B600B683F
:1016C80023F48023D4E7B2F5A02FF5D143F4802387
:1016D8000B60CAE7FFF780FF4FF400360546012785
:1016E80096FAA6F30A6896FAA6F3B3FA83F303F018
:1016F8001F0307FA03F313423FF47CAFFFF76CFFB5
:10170800401B6428ECD9D3E75E494B6813F00C0FF3
:1017180007D04B6803F00C03082B21D14B68DF037B
:101728001ED4022393FAA3F2086893FAA3F3B3FA38
:1017380083F303F01F03012202FA03F3034202D0EA
:101748002369934289D10868F82393FAA3F3B3FA7B
:1017580083F26369934020F0F80213430B604DE76E
:101768002269012502B395FAA5F3B3FA83F303F1CD
:10177800845303F584139B0002271D60FFF72CFF99
:10178800064697FAA7F30A6897FAA7F3B3FA83F31A
:1017980003F01F0305FA03F31342D4D1FFF71CFF2C
:1017A800801B0228EDD983E795FAA5F3B3FA83F3F2
:1017B80003F1845303F584139B0002271A60FFF793
:1017C8000BFF064697FAA7F30A6897FAA7F3B3FA46
:1017D80083F303F01F0305FA03F313423FF40EAF3C
:1017E800FFF7FAFE801B0228ECD961E7A269254DB4
:1017F8002548012112B391FAA1F3B3FA83F3034404
:101808009B0002261960FFF7E7FE074696FAA6F343
:1018180096FAA6F396FAA6F36A6A96FAA6F3B3FAC4
:1018280083F303F01F0301FA03F313427FF4EAAED4
:10183800FFF7D2FEC01B0228E8D939E791FAA1F3D5
:10184800B3FA83F303449B0002261A60FFF7C4FE31
:10185800074696FAA6F396FAA6F396FAA6F36A6AE4
:1018680096FAA6F3B3FA83F303F01F0301FA03F31E
:1018780013423FF4C7AEFFF7AFFEC01B0228E8D9FA
:1018880016E700BF00100240208190108A49CB69FA
:10189800D80033D4CB6943F08053CB61CB6903F0D4
:1018A80080530193019B0125844E3368DA0527D5BF
:1018B800E368012B34D10B6A43F001030B62FFF795
:1018C8008BFE022607464FF0010896FAA6F396FA11
:1018D800A6F3002B61D00A6A96FAA6F3B3FA83F34B
:1018E80003F01F0308FA03F313424ED0002D3FF410
:1018F8008DAECB6923F08053CB6187E60025D3E713
:10190800336843F480733360FFF766FE0746336835
:10191800DB05CDD4FFF760FEC01B6428F7D9C7E606
:101928002BBB0B6A23F001030B620B6A23F0040341
:101938000B62FFF751FE022607464FF0010896FAA0
:10194800A6F396FAA6F363B30A6A96FAA6F3B3FA6D
:1019580083F303F01F0308FA03F31342C6D0FFF71B
:101968003BFE41F28833C01B9842E8D9A0E6052B1C
:101978000B6A03D143F004030B629CE723F00103D5
:101988000B620B6A23F0040398E7FFF725FE41F288
:101998008833C01B984298D98AE696FAA6F34A6A11
:1019A8009AE796FAA6F34A6ACFE743494B6803F0E9
:1019B8000C03082B3FF451AE022A4FF0807354D128
:1019C80093FAA3F3B3FA83F303F1845303F584136F
:1019D8009B0000221A60FFF7FFFDDFF8E48006464F
:1019E8004FF00077012597FAA7F30A6897FAA7F34B
:1019F800B3FA83F303F01F0305FA03F313422ED15E
:101A0800D4E908034A68034322F4741213434B6071
:101A18004FF0807393FAA3F3B3FA83F303F184537B
:101A280003F584139B00264F1D60FFF7D5FD4FF08B
:101A380000750446012695FAA5F30A6895FAA5F3F8
:101A4800B3FA83F303F01F0306FA03F313427FF498
:101A5800E1ADFFF7C1FD001BB842ECD928E6FFF75E
:101A6800BBFD801B4045BED922E693FAA3F3B3FA27
:101A780083F303F1845303F584139B0000221A6057
:101A8800FFF7AAFD0E4F04464FF00075012695FAA0
:101A9800A5F30A6895FAA5F3B3FA83F303F01F03D5
:101AA80006FA03F313423FF4B5ADFFF795FD001BAB
:101AB800B842ECD9FCE500BF0010024000700040BD
:101AC800400D0300504AF8B5136803F007038B4232
:101AD80004461BD32268900724D4D2072AD44A4A42
:101AE800136803F007038B427AD82068430700F194
:101AF800828010F0080014D0444A2169536823F406
:101B0800605343EAC103536000200AE0136823F0DE
:101B180007030B431360136803F007038B42D9D004
:101B28000120F8BD3948A568436823F0F0032B432A
:101B38004360D2E76268354D012A27D14FF400335C
:101B480093FAA3F0286893FAA3F3B3FA83F303F0A4
:101B58001F0302FA03F30342E2D06B6823F0030386
:101B68001A436A60FFF738FD6368012B064641F2A5
:101B780088371ED16B6803F00C03042BAFD0FFF736
:101B88002BFD801BB842F5D90320CAE7022A0CBFF7
:101B98004FF00073022393FAA3F02E6893FAA3F38D
:101BA800B3FA83F303F01F03012000FA03F333426F
:101BB800D2E7022B0FD16B6803F00C03082B8ED0F1
:101BC800FFF70AFD801BB842F5D9DDE7FFF704FDF2
:101BD800801BB842D8D86B6813F00C0FF6D17EE79B
:101BE800136823F007030B431360136803F007031C
:101BF8008B4295D179E70549E3684A6822F4E062A7
:101C08001A434A6075E700BF0020024000100240F6
:101C18002DE9F74FDFF874815D4C00234FF001097F
:101C28000A6832FA03F502D103B0BDE8F08F09FA69
:101C380003FA1AEA020200F09E804D6825F0100EA1
:101C4800BEF1020F14D14FEAD30C00EB8C0C03F059
:101C5800070BDCF820604FEA8B0B0F2707FA0BF70E
:101C680026EA07070E6906FA0BF63E43CCF8206011
:101C7800D0F800B04FEA430C032606FA0CF72BEA1B
:101C8800070BFE4305F0030707FA0CF70EF1FF3EBA
:101C980047EA0B07BEF1010F076011D8876806EA0B
:101CA800070ECF6807FA0CF747EA0E078760476800
:101CB80027EA0A0AC5F300179F4047EA0A07476060
:101CC800C76837408E6806FA0CF63E43C660EE00D9
:101CD80051D5D8F8186046F00106C8F81860D8F849
:101CE800186023F0030707F1804706F0010607F59F
:101CF8008037019603F0030E019EBE684FEA8E0EF0
:101D08004FF00F0C0CFA0EFCB0F1904F26EA0C0CB9
:101D180033D0204EB04232D006F58066B04230D083
:101D280006F58066B0422ED006F58066B0420CBF3C
:101D38000426052606FA0EF646EA0C06BE60266854
:101D4800D74315F4803F0CBF3E40164326606668B3
:101D580015F4003F0CBF3E4016436660A66815F4B4
:101D6800801F0CBF3E401643A660E668AD0254BF14
:101D78003E401643E660013352E70026DAE70126C3
:101D8800D8E70226D6E70326D4E700BF00100240B2
:101D980000040140000400480AB181617047816273
:101DA8007047000002688168C36930B50569146826
:101DB8002943456924F41644294324F00C041943A3
:101DC800214311605168C468056A21F440512143D8
:101DD80051609468816924F43064294321439160F7
:101DE80062498A4216D101F55841096B01F0030195
:101DF8000139022900F2B2805D4CB3F5004F615CF5
:101E080077D1082972D8DFE801F0ACAC2471AC7145
:101E18007171A40057498A422CD101F5E631096B4A
:101E280001F44031B1F5003F00F090800BD8002953
:101E380000F09480B1F5803F00F09080B3F5004F3A
:101E480054D0012015E0B1F5403FF7D1B3F5004F6C
:101E580066D141684B0803F1F47303F59043B3FB73
:101E6800F1F300209BB223F00F01C3F342030B43AD
:101E7800D36030BD40498A4210D101F5E431096B85
:101E880001F44021B1F5002F60D004D8002965D0B5
:101E9800B1F5802FD0E7B1F5402FD6E737498A4210
:101EA80010D101F5E231096B01F44011B1F5001FC1
:101EB8004CD004D8002951D0B1F5801FBCE7B1F54A
:101EC800401FC2E72E498A42B8D101F5E031096BBB
:101ED80001F44001B1F5000F38D004D800293DD0F5
:101EE800B1F5800FA8E7B1F5400FAEE70120002358
:101EF800B9E70829A5D801A353F821F0411F000824
:101F0800411F0008291F00084B1E0008411F000838
:101F18004B1E00084B1E00084B1E00084B1F0008F4
:101F280041684B0803F5740303F51053B3FBF1F351
:101F38009BB2D36000209CE741684B0803F5E1039E
:101F4800F4E741684B0803F50043EFE7B3F5004FAA
:101F5800F7D141684B0803F5803380E7B3F5004FAC
:101F6800EAD141684B0803F5610378E7003801407E
:101F7800042600080044004000480040004C00408F
:101F880000500040F8B5069F044615461E462268D4
:101F9800D36931EA03030CBF01230023AB4201D00C
:101FA800002014E07B1CF3D097B923681A6822F448
:101FB800D0721A609A6822F001029A60202384F88D
:101FC800693084F86A30002384F868300320F8BD4B
:101FD800FFF702FB801BB842D9D9E6E737B50446BC
:101FE8000021C166FFF7F8FA23681B681A0705463F
:101FF80017D423681B685B070AD56FF07E430093EC
:1020080000222B464FF480012046FFF7BBFFA0B902
:102018002023002084F8693084F8680084F86A3046
:102028000CE06FF07E4300930A4603464FF400111C
:102038002046FFF7A7FF0028DBD0032003B030BD00
:1020480010B5044628B390F8693003F0FF020BB9C5
:1020580080F868202268242384F86930136823F004
:10206800010313602046FFF79DFE012811D0236865
:102078005A6822F490425A609A6822F02A029A60BA
:102088001A6842F0010220461A60BDE81040FFF7C6
:10209800A5BF012010BDF7B51E4690F86930202B6A
:1020A8000D46044611464AD1002D46D0002A44D098
:1020B80090F86830012B42D0012380F86830002363
:1020C800C366212380F86930FFF786FAA4F8501018
:1020D8000746A4F85210B4F8522092B262B900969A
:1020E8003B4640212046FFF74DFF98B9202384F84E
:1020F800693084F868000EE0B4F852200096013A7E
:1021080092B2A4F852203B46002280212046FFF7D5
:1021180039FF10B1032003B0F0BDA3682268B3F5FE
:10212800805F07D123692BB935F8023BC3F3080355
:102138001385D0E715F8013BFAE70120EBE7022009
:10214800E9E72DE9F3411E4690F86A30202B0D4649
:10215800044611465CD1002D58D0002A56D090F87C
:102168006830012B54D0012380F8683003684FF0A1
:10217800FF321A620023C366222380F86A30FFF711
:102188002BFAA368A4F85810B3F5805F8046A4F82A
:102198005A1015D123698BB940F2FF13A4F85C30AB
:1021A800B4F85C70B4F85A0080B280B9202384F87F
:1021B8006A3084F8680002B0BDE8F081FF23EDE7DB
:1021C800002BEDD12369002BF8D07F23E6E7B4F884
:1021D8005A200096013A92B2A4F85A2043460022A7
:1021E80020212046FFF7CEFEA0B9A2682368B2F5E9
:1021F800805F06D1226922B99B8C3B4025F8023BBF
:10220800D0E79B8C3B4005F8013BCBE70120D2E7A8
:102218000220D0E70320CEE70023054A1946D1540F
:102228000133B3F5E56FFAD182F82817704700BF7C
:102238009C0100201FB5094901F22973024691F853
:102248002807029301F23C7301930023009340F0A6
:10225800010000F0DCF805B05DF804FB9C010020EB
:10226800704770471FB50949034601F2297291F872
:102278002807029201F23C72CDE9003240F00A00D0
:10228800002200F0C4F805B05DF804FB9C010020B2
:10229800F0B5174A122992F8284717D9431E02F2B7
:1022A800297500F1120613F8017F05F8017BB34286
:1022B800F9D144F02005262982F828570BD092F846
:1022C800283723F0400382F8283710E024F0200450
:1022D80082F82847F3E70749253013F8015F01F82A
:1022E800015B8342F9D144F0600482F82847F0BDCD
:1022F8009C010020D80800200E4A1368553B70B591
:1023080003700446C0F1010635198D4213780AD3CB
:102318000844113B43F0010300F8013C1368013302
:102328001360002070BD2578333B2B4404F8013F2F
:10233800EAE700BFFC08002030B510F0010FDDE926
:10234800034500D0A9B100F02101212900D19DB198
:10235800450600D59CB1010701D59AB193B110F09B
:10236800100005D072B1002B14BF00204FF480502C
:1023780030BD4FF40040FBE74FF40070F8E74FF42E
:102388008070F5E74FF48050F2E700F01803182B3F
:102398000FD000F00603062B0DD000F01203122B0D
:1023A8000BD000F00C030C2B07D0B0FA80F04009DA
:1023B80070470220704704207047082070470307C1
:1023C80009D540EA0103DA071BD58A0701D4420779
:1023D8001AD49A0710D510F0100310D00843C30779
:1023E8000FD501F0060102290ED010F0040F14BF1A
:1023F80000204FF4003070474FF400307047184603
:1024080070474FF4802070474FF4002070472DE943
:10241800F04F89B04FF00008DDF848B099460646FD
:102428000C46924603AF434607F8083008F1010806
:10243800B8F1130FF8D13046FFF7A7FF054600287B
:1024480047D194F824173046FFF7B9FF054600280E
:102458003FD1149B0193139B00934A465B46514618
:102468003046FFF769FF054698BB06F02103212B8C
:1024780033D1149B39465A1E123312F8010F01F852
:10248800010B9A42F9D1F0070ED53A46514620463B
:10249800FEF7D9FA002871D194F82437C4F8200738
:1024A80043F0010384F8243771061ED5139B39467F
:1024B8005A1E123312F8010F01F8010B9A42F9D192
:1024C800B20724D5394604F56870FEF72CFBA0B195
:1024D8008025284609B0BDE8F08F41463846FFF709
:1024E8000BFF0028CFD01025F3E713213846FFF75C
:1024F80003FF0028E4D02025EBE794F82437C4F83C
:102508001C0723F0040343F0020384F824377307FD
:1025180010D5394604F56870FEF751FB0028D7D16D
:1025280094F82437C4F81C0723F0020343F004038B
:1025380084F8243706F01806082E0CD0102EC8D1BF
:102548005B464A46214604F56870FEF76DFC50B1BB
:102558004FF40075BDE75B464A46214604F56870AE
:10256800FEF779FB60B9D4F820370133C4F8203777
:10257800D4F81C370133C4F81C37AAE74025A8E76C
:102588004FF48075A5E70000002103E00B4B5B5872
:10259800435004310A480B4B42189A42F6D30A4A70
:1025A80002E0002313600432084B9A42F9D3AFF3D8
:1025B8000080FEF753FDFEF7BDFDFEE7782D00080D
:1025C8000000002004000020040000200009002072
:1025D800FEE70000F8B500BFF8BC08BC9E4670478F
:0C25E800F8B500BFF8BC08BC9E46704768
:1025F4003031323334353637383941424344454635
:10260400040802637C777BF26B6FC53001672BFE95
:10261400D7AB76CA82C97DFA5947F0ADD4A2AF9C34
:10262400A472C0B7FD9326363FF7CC34A5E5F1710B
:10263400D8311504C723C31896059A071280E2EB14
:1026440027B27509832C1A1B6E5AA0523BD6B329A4
:10265400E32F8453D100ED20FCB15B6ACBBE394A31
:102664004C58CFD0EFAAFB434D338545F9027F5038
:102674003C9FA851A3408F929D38F5BCB6DA211037
:10268400FFF3D2CD0C13EC5F974417C4A77E3D64CF
:102694005D197360814FDC222A908846EEB814DEFF
:1026A4005E0BDBE0323A0A4906245CC2D3AC629189
:1026B40095E479E7C8376D8DD54EA96C56F4EA6573
:1026C4007AAE08BA78252E1CA6B4C6E8DD741F4B72
:1026D400BD8B8A703EB5664803F60E613557B986E0
:1026E400C11D9EE1F8981169D98E949B1E87E9CE8D
:1026F4005528DF8CA1890DBFE6426841992D0FB0A2
:1027040054BB1652096AD53036A538BF40A39E8102
:10271400F3D7FB7CE339829B2FFF87348E4344C479
:10272400DEE9CB547B9432A6C2233DEE4C950B429A
:10273400FAC34E082EA16628D924B2765BA2496D4D
:102744008BD12572F8F66486689816D4A45CCC5DA7
:1027540065B6926C704850FDEDB9DA5E154657A720
:102764008D9D8490D8AB008CBCD30AF7E45805B88F
:10277400B34506D02C1E8FCA3F0F02C1AFBD030163
:10278400138A6B3A9111414F67DCEA97F2CFCEF08E
:10279400B4E67396AC7422E7AD3585E2F937E81CEC
:1027A40075DF6E47F11A711D29C5896FB7620EAACC
:1027B40018BE1BFC563E4BC6D279209ADBC0FE786D
:1027C400CD5AF41FDDA8338807C731B11210592739
:1027D40080EC5F60517FA919B54A0D2DE57A9F936E
:1027E400C99CEFA0E03B4DAE2AF5B0C8EBBB3C83DF
:1027F400539961172B047EBA77D626E16914635581
:10280400210C7D000D0A0704010E0B0805020F0CB4
:1028140009060300050A0F04090E03080D02070C3C
:1028240001060B0100000002000000040000000883
:1028340000000010000000200000004000000080A4
:102844000000001B0000003600000000020406081F
:102854000A0C0E10121416181A1C1E2022242628E4
:102864002A2C2E30323436383A3C3E4042444648D4
:102874004A4C4E50525456585A5C5E6062646668C4
:102884006A6C6E70727476787A7C7E8082848688B4
:102894008A8C8E90929496989A9C9EA0A2A4A6A8A4
:1028A400AAACAEB0B2B4B6B8BABCBEC0C2C4C6C894
:1028B400CACCCED0D2D4D6D8DADCDEE0E2E4E6E884
:1028C400EAECEEF0F2F4F6F8FAFCFE1B191F1D1305
:1028D4001117150B090F0D030107053B393F3D3354
:1028E4003137352B292F2D232127255B595F5D5344
:1028F4005157554B494F4D434147457B797F7D7334
:102904007177756B696F6D636167659B999F9D9323
:102914009197958B898F8D83818785BBB9BFBDB313
:10292400B1B7B5ABA9AFADA3A1A7A5DBD9DFDDD303
:10293400D1D7D5CBC9CFCDC3C1C7C5FBF9FFFDF3F3
:10294400F1F7F5EBE9EFEDE3E1E7E50004080C103E
:1029540014181C2024282C3034383C4044484C5053
:1029640054585C6064686C7074787C8084888C9043
:1029740094989CA0A4A8ACB0B4B8BCC0C4C8CCD033
:10298400D4D8DCE0E4E8ECF0F4F8FC1B1F13170BDC
:102994000F03073B3F33372B2F23275B5F53574BE3
:1029A4004F43477B7F73776B6F63679B9F93978BD3
:1029B4008F8387BBBFB3B7ABAFA3A7DBDFD3D7CBC3
:1029C400CFC3C7FBFFF3F7EBEFE3E736323E3A261C
:1029D400222E2A16121E1A06020E0A76727E7A66B3
:1029E400626E6A56525E5A46424E4AB6B2BEBAA6A3
:1029F400A2AEAA96929E9A86828E8AF6F2FEFAE693
:102A0400E2EEEAD6D2DEDAC6C2CECA2D2925213DAF
:102A14003935310D0905011D1915116D6965617D82
:102A24007975714D4945415D595551ADA9A5A1BD72
:102A3400B9B5B18D8985819D999591EDE9E5E1FD62
:102A4400F9F5F1CDC9C5C1DDD9D5D10008101820DB
:102A5400283038404850586068707880889098A032
:102A6400A8B0B8C0C8D0D8E0E8F0F81B130B033BFB
:102A7400332B235B534B437B736B639B938B83BBE2
:102A8400B3ABA3DBD3CBC3FBF3EBE3363E262E166B
:102A94001E060E767E666E565E464EB6BEA6AE9692
:102AA4009E868EF6FEE6EED6DEC6CE2D253D350D8F
:102AB400051D156D657D754D455D55ADA5BDB58D82
:102AC400859D95EDE5FDF5CDC5DDD56C647C744C37
:102AD400445C542C243C340C041C14ECE4FCF4CC72
:102AE400C4DCD4ACA4BCB48C849C94777F676F574B
:102AF4005F474F373F272F171F070FF7FFE7EFD722
:102B0400DFC7CFB7BFA7AF979F878F5A524A427A82
:102B1400726A621A120A023A322A22DAD2CAC2FA51
:102B2400F2EAE29A928A82BAB2AAA241495159615E
:102B34006971790109111921293139C1C9D1D9E141
:102B4400E9F1F981899199A1A9B1B900001901327A
:102B5400021AC64BC71B6833EEDF036404E00E346D
:102B64008D81EF4C7108C8F8691CC17DC21DB5F98F
:102B7400B9276A4DE4A6729AC90978652F8A052196
:102B84000FE12412F082453593DA8E968FDBBD3641
:102B9400D0CE94135CD2F14046833866DDFD30BF5D
:102BA400068B62B325E298228891107E6E48C3A3F7
:102BB400B61E423A6B2854FA853DBA2B790A159B06
:102BC4009F5ECA4ED4ACE5F373A757AF58A850F430
:102BD400EAD6744FAEE9D5E7E6ADE82CD7757AEBC3
:102BE400160BF559CB5FB09CA951A07F0CF66F175B
:102BF400C449ECD8431F2DA4767BB7CCBB3E5AFB0B
:102C040060B1863B52A16CAA55299D97B287906109
:102C1400BEDCFCBC95CFCD373F5BD15339843C41FE
:102C2400A26D47142A9E5D56F2D3AB441192D92368
:102C3400202E89B47CB8267799E3A5674AEDDEC5D2
:102C440031FE180D638C80C0F770070103050F1166
:102C54003355FF1A2E7296A1F813355FE13848D820
:102C64007395A4F702060A1E2266AAE5345CE437CB
:102C740059EB266ABED97090ABE63153F5040C14B7
:102C84003C44CC4FD168B8D36EB2CD4CD467A9E0E4
:102C94003B4DD762A6F10818287888839EB9D06B7B
:102CA400BDDC7F8198B3CE49DB769AB5C457F91061
:102CB4003050F00B1D2769BBD661A3FE192B7D870D
:102CC40092ADEC2F7193AEE92060A0FB163A4ED280
:102CD4006DB7C25DE73256FA153F41C35EE23D4728
:102CE400C940C05BED2C749CBFDA759FBAD564AC47
:102CF400EF2A7E829DBCDF7A8E89809BB6C158E81C
:102D04002365AFEA256FB1C843C554FC1F2163A5F1
:102D1400F407091B2D7799B0CB46CA45CF4ADE7913
:102D24008B8691A8E33E42C651F30E12365AEE2921
:102D34007B8D8C8F8A8594A7F20D17394BDD7C84AB
:102D440097A2FD1C246CB4C752F6010C05060B09AE
:102D5400000A0D030E0F08040701022B7E15162826
:0C2D6400AED2A6ABF7158809CF4F3C009B
:042D7000F101000865
:042D7400C901000889
:042D78000A0000004D
:040000050800259139
:00000001FF
