:020000040800F2
:1000000000A00020251E00086D1E00086D1E0008BF
:100010006D1E00086D1E00086D1E00080000000027
:100020000000000000000000000000006D1E00083D
:100030006D1E0008000000006D1E00086D1E000807
:1000400000000000000000000000000000000000B0
:1000500000000000000000000000000000000000A0
:100060000000000000000000000000000000000090
:100070000000000000000000000000000000000080
:100080000000000000000000000000000000000070
:100090000000000000000000000000000000000060
:1000A0000000000000000000000000000000000050
:1000B0000000000000000000000000000000000040
:1000C0000000000000000000000000000000000030
:1000D0000000000000000000000000000000000020
:1000E0000000000000000000000000000000000010
:1000F0000000000000000000000000000000000000
:1001000000000000000000000000000000000000EF
:1001100000000000000000000000000000000000DF
:1001200000000000000000000000000000000000CF
:1001300000000000000000000000000000000000BF
:1001400000000000000000000000000000000000AF
:10015000000000000000000000000000000000009F
:10016000000000000000000000000000000000008F
:10017000000000000000000000000000000000007F
:08018000000000000000000077
:100188000348044B834202D0034B03B1184770471E
:10019800000000200000002000000000054806497B
:1001A8000B1AD90F01EBA301491002D0034B03B17D
:1001B80018477047000000200000002000000000E1
:1001C80010B5064C237843B9FFF7DAFF044B13B197
:1001D8000448AFF300800123237010BD0000002005
:1001E80000000000701E000808B5044B1BB104494C
:1001F8000448AFF30080BDE80840CFE700000000E6
:1002080004000020701E000870B50D4E0D4D761BC1
:10021800B61006D0002455F8043B01349847A6428E
:10022800F9D1094E094D761B01F01EFEB61006D015
:10023800002455F8043B01349847A642F9D170BD13
:10024800C8400008C8400008CC400008C840000862
:10025800844641EA000313F003036DD1403A41D3C9
:1002680051F8043B40F8043B51F8043B40F8043B88
:1002780051F8043B40F8043B51F8043B40F8043B78
:1002880051F8043B40F8043B51F8043B40F8043B68
:1002980051F8043B40F8043B51F8043B40F8043B58
:1002A80051F8043B40F8043B51F8043B40F8043B48
:1002B80051F8043B40F8043B51F8043B40F8043B38
:1002C80051F8043B40F8043B51F8043B40F8043B28
:1002D80051F8043B40F8043B51F8043B40F8043B18
:1002E800403ABDD2303211D351F8043B40F8043BB8
:1002F80051F8043B40F8043B51F8043B40F8043BF8
:1003080051F8043B40F8043B103AEDD20C3205D3C7
:1003180051F8043B40F8043B043AF9D2043208D0BF
:10032800D2071CBF11F8013B00F8013B01D30B8831
:1003380003806046704700BF082A13D38B078DD00F
:1003480010F003038AD0C3F10403D21ADB071CBFE1
:1003580011F8013B00F8013B80D331F8023B20F84B
:10036800023B7BE7043AD9D3013A11F8013B00F884
:10037800013BF9D20B7803704B7843708B7883700C
:1003880060467047830730B548D0541E002A3FD0D6
:10039800CAB2034601E0013C3AD303F8012B9D079A
:1003A800F9D1032C2DD9CDB245EA05250F2C45EA04
:1003B800054536D9A4F1100222F00F0C03F1200EE6
:1003C800E6444FEA121C03F1100242E9045542E9DF
:1003D800025510327245F8D10CF1010214F00C0FDD
:1003E80003EB021204F00F0C13D0ACF1040323F05A
:1003F80003030433134442F8045B9342FBD10CF02B
:1004080003042CB1CAB21C4403F8012B9C42FBD153
:1004180030BD64461346002CF4D1F9E70346144670
:10042800BFE71A46A446E0E710B5044601F090F885
:1004380000F030FA204601F095F800F032FA204634
:1004480001F087F822461021722000F0BBF8002046
:1004580010BDF8B511F004040E4615461F4608D025
:1004680019784C1CE4B294421DD8601A184401F063
:1004780081F8B20708D51034E4B2A54213D3A4F129
:100488001000384401F066F8F3070AD51034E4B2D6
:10049800A54208D3A4F1100010213844FFF7C4FF87
:1004A80010B9AC4201D00420F8BD0020FCE70000E0
:1004B8001FB5114B6A4603F11006154618685968AE
:1004C800144603C40833B3422246F7D100F040F97A
:1004D80000F07EF900F0BAF901F034F8284601F08E
:1004E80039F800F05DF8054A1021012000F03EF8C7
:1004F80000F0C0F8FCE700BFB44000085B04000847
:100508000346014400208B4200D1704713F8012BA9
:100518005040082210F0800F4FEA400018BF80F0CA
:100528004D00013AC0B2F5D1EDE730B500220446DE
:1005380001238B4201D3002030BD14F8015F15B9A7
:100548009D1A85541A460133DBB2F2E710B50278DA
:100558000024034604701046884200D202B910BD38
:100568001A5C1C541044C0B2F6E7000038B50B4DB5
:100578002B680F2B04DD612000F0B4F9012038BD91
:10058800FF2901D96220F7E70C2404FB0354013347
:100598002071C4E902122B600020F0E71C00002043
:1005A80008B5064A00217620FFF7E0FFBDE80840BD
:1005B800034A00217720FFF7D9BF00BF23060008B0
:1005C8004106000870B5C0B00C46002511468DF8EC
:1005D800010022460DF103008DF802408DF800500D
:1005E800FFF736FEA11CC9B20DF10100FFF788FF25
:1005F8000DEB0403261D611DD870C9B268460DF8BD
:100608000650FFF792FF6C4614F8010B013500F015
:1006180069F9AE42F8DA40B070BD07B503230DF1B1
:100628000702012172208DF80730FFF7CBFF002069
:1006380003B05DF804FB000030B50D48017885B0C3
:1006480000220C24D3B28B4202F1010206DB6A4677
:100658007220FFF7B7FF002005B030BD03F1100589
:1006680004FB03036D441B7905F8103CEAE700BF5F
:100678001C0000202DE9F047C2B0002502AE8DF81D
:100688000750344600F014F906F8010B58B9052351
:100698008DF807300DF1070201216520FFF792FF61
:1006A80042B0BDE8F0870135042DEBD1294620463C
:1006B800FFF74CFF254F61783A68804600230C20ED
:1006C8005FFA83F9914502DB07D10123E0E700FBDC
:1006D8000976013336798E42F2D1E3780533434502
:1006E80002DA0423D4E7354600F0E2F86055002822
:1006F800CDD0E3786E1C0433B342F4DA00F0D8F8B6
:10070800A0550028EDD1C8F1010151FA86F1C9B20E
:100718005FFA86FA04EB0800FFF718FFAAF1020156
:10072800C9B20DF10900FFF7EBFE635D834201D00A
:100738000223ADE70C2303FB0977E278FD68A17873
:1007480060786B44A8478DF80700A3E71C000020D9
:1007580070B596B0002403264FF4A0230CA80125F9
:10076800CDE90C631094149400F0D4F80F232146BB
:1007780002A8CDE90235CDE90444069400F038FB1F
:10078800114B5A6942F400225A615B69CDE9094666
:1007980003F400230D4C0193019B07A94FF4C043B8
:1007A8002046CDE9073500F0C9FB2A4620464FF41C
:1007B800005100F087FC2A464FF48041204600F0A3
:1007C80081FC16B070BD00BF001002400008004850
:1007D80010B54FF4C06288B00223CDE9032301218C
:1007E8000323CDE90513164C07230793636943F4E4
:1007F80000336361636903F40033019303A94FF085
:100808009040019B00F09AFB0E48DFF83CC04FF483
:100818006133C0E900C30023C0E902330361836187
:100828000C234361A36943F48043A361A36903F4E0
:1008380080430293029B00F099FD08B010BD00BFF1
:1008480000100240E000002000380140104B30B595
:100858005A6942F400325A615B6987B003F4003385
:100868000093009B4FF480540123CDE901430025F8
:10087800032301A94FF09040CDE9035300F05EFB3C
:100888002A4621464FF0904000F01CFC07B030BDCE
:100898000010024001224FF480514FF0904000F0C8
:1008A80011BC00224FF480514FF0904000F00ABC78
:1008B80037B50A4D0A4C41F2883301220DF1070180
:1008C800284600F0D4FD18B99DF8070003B030BDE4
:1008D800236A43F008032362EDE700BFE00000202D
:1008E8000038014007B541F288338DF8070001222E
:1008F8000DF10701024800F064FD03B05DF804FB48
:10090800E0000020024B1868421C1A60704700BFC4
:100918005001002003682DE9F341D907044611D49A
:1009280023689A0700F1868023681E0700F1F48087
:1009380023685D0700F14081E269002A40F0CB811D
:10094800002021E09A494B6803F00C03042B07D0E0
:100958004B6803F00C03082B19D14B68DB0316D541
:100968004FF4003393FAA3F2096893FAA3F3B3FAA6
:1009780083F303F01F03012202FA03F30B42CFD0E3
:100988006368002BCCD1012002B0BDE8F081626819
:10099800B2F5803F24D10B6843F480330B60CB6AF7
:1009A800A06823F00F030343CB624AB3FFF7AAFF03
:1009B8004FF400360546012796FAA6F30A6896FA18
:1009C800A6F3B3FA83F303F01F0307FA03F3134202
:1009D800A6D1FFF797FF401B6428EDD90320D3E782
:1009E8000B6832B923F480330B600B6823F480233F
:1009F800D4E7B2F5A02FF5D143F480230B60CAE702
:100A0800FFF780FF4FF400360546012796FAA6F354
:100A18000A6896FAA6F3B3FA83F303F01F0307FAFA
:100A280003F313423FF47CAFFFF76CFF401B6428CD
:100A3800ECD9D3E75E494B6813F00C0F07D04B682D
:100A480003F00C03082B21D14B68DF031ED40223CB
:100A580093FAA3F2086893FAA3F3B3FA83F303F0C3
:100A68001F03012202FA03F3034202D023699342CF
:100A780089D10868F82393FAA3F3B3FA83F2636978
:100A8800934020F0F80213430B604DE722690125DB
:100A980002B395FAA5F3B3FA83F303F1845303F58C
:100AA80084139B0002271D60FFF72CFF064697FA68
:100AB800A7F30A6897FAA7F3B3FA83F303F01F03BF
:100AC80005FA03F31342D4D1FFF71CFF801B022859
:100AD800EDD983E795FAA5F3B3FA83F303F18453C9
:100AE80003F584139B0002271A60FFF70BFF0646E5
:100AF80097FAA7F30A6897FAA7F3B3FA83F303F010
:100B08001F0305FA03F313423FF40EAFFFF7FAFE93
:100B1800801B0228ECD961E7A269254D25480121EF
:100B280012B391FAA1F3B3FA83F303449B000226AC
:100B38001960FFF7E7FE074696FAA6F396FAA6F3BA
:100B480096FAA6F36A6A96FAA6F3B3FA83F303F061
:100B58001F0301FA03F313427FF4EAAEFFF7D2FE54
:100B6800C01B0228E8D939E791FAA1F3B3FA83F355
:100B780003449B0002261A60FFF7C4FE074696FA54
:100B8800A6F396FAA6F396FAA6F36A6A96FAA6F375
:100B9800B3FA83F303F01F0301FA03F313423FF49C
:100BA800C7AEFFF7AFFEC01B0228E8D916E700BFA3
:100BB80000100240208190108A49CB69D80033D4B4
:100BC800CB6943F08053CB61CB6903F08053019329
:100BD800019B0125844E3368DA0527D5E368012B8C
:100BE80034D10B6A43F001030B62FFF78BFE022638
:100BF80007464FF0010896FAA6F396FAA6F3002BDB
:100C080061D00A6A96FAA6F3B3FA83F303F01F03D6
:100C180008FA03F313424ED0002D3FF48DAECB6992
:100C280023F08053CB6187E60025D3E7336843F48C
:100C380080733360FFF766FE07463368DB05CDD463
:100C4800FFF760FEC01B6428F7D9C7E62BBB0B6A09
:100C580023F001030B620B6A23F004030B62FFF716
:100C680051FE022607464FF0010896FAA6F396FAB7
:100C7800A6F363B30A6A96FAA6F3B3FA83F303F00A
:100C88001F0308FA03F31342C6D0FFF73BFE41F2F5
:100C98008833C01B9842E8D9A0E6052B0B6A03D11C
:100CA80043F004030B629CE723F001030B620B6A19
:100CB80023F0040398E7FFF725FE41F28833C01BB1
:100CC800984298D98AE696FAA6F34A6A9AE796FA73
:100CD800A6F34A6ACFE743494B6803F00C03082B95
:100CE8003FF451AE022A4FF0807354D193FAA3F324
:100CF800B3FA83F303F1845303F584139B000022B2
:100D08001A60FFF7FFFDDFF8E48006464FF0007732
:100D1800012597FAA7F30A6897FAA7F3B3FA83F3BA
:100D280003F01F0305FA03F313422ED1D4E9080395
:100D38004A68034322F4741213434B604FF08073E4
:100D480093FAA3F3B3FA83F303F1845303F58413FB
:100D58009B00264F1D60FFF7D5FD4FF00075044638
:100D6800012695FAA5F30A6895FAA5F3B3FA83F371
:100D780003F01F0306FA03F313427FF4E1ADFFF714
:100D8800C1FD001BB842ECD928E6FFF7BBFD801B6C
:100D98004045BED922E693FAA3F3B3FA83F303F1ED
:100DA800845303F584139B0000221A60FFF7AAFD01
:100DB8000E4F04464FF00075012695FAA5F30A6810
:100DC80095FAA5F3B3FA83F303F01F0306FA03F3C6
:100DD80013423FF4B5ADFFF795FD001BB842ECD9BF
:100DE800FCE500BF0010024000700040400D030009
:100DF800504AF8B5136803F007038B4204461BD327
:100E08002268900724D4D2072AD44A4A136803F0E8
:100E180007038B427AD82068430700F1828010F0DC
:100E2800080014D0444A2169536823F4605343EA04
:100E3800C103536000200AE0136823F007030B4343
:100E48001360136803F007038B42D9D00120F8BD63
:100E58003948A568436823F0F0032B434360D2E781
:100E68006268354D012A27D14FF4003393FAA3F075
:100E7800286893FAA3F3B3FA83F303F01F0302FA83
:100E880003F30342E2D06B6823F003031A436A605A
:100E9800FFF738FD6368012B064641F288371ED1FB
:100EA8006B6803F00C03042BAFD0FFF72BFD801BFE
:100EB800B842F5D90320CAE7022A0CBF4FF00073E5
:100EC800022393FAA3F02E6893FAA3F3B3FA83F3F9
:100ED80003F01F03012000FA03F33342D2E7022B89
:100EE8000FD16B6803F00C03082B8ED0FFF70AFDB7
:100EF800801BB842F5D9DDE7FFF704FD801BB84237
:100F0800D8D86B6813F00C0FF6D17EE7136823F07E
:100F180007030B431360136803F007038B4295D153
:100F280079E70549E3684A6822F4E0621A434A60AF
:100F380075E700BF00200240001002402DE9F74F7E
:100F4800DFF874815D4C00234FF001090A6832FA1A
:100F580003F502D103B0BDE8F08F09FA03FA1AEAE3
:100F6800020200F09E804D6825F0100EBEF1020FBF
:100F780014D14FEAD30C00EB8C0C03F0070BDCF810
:100F880020604FEA8B0B0F2707FA0BF726EA0707B3
:100F98000E6906FA0BF63E43CCF82060D0F800B094
:100FA8004FEA430C032606FA0CF72BEA070BFE431D
:100FB80005F0030707FA0CF70EF1FF3E47EA0B07A7
:100FC800BEF1010F076011D8876806EA070ECF68DF
:100FD80007FA0CF747EA0E078760476827EA0A0A04
:100FE800C5F300179F4047EA0A074760C7683740BC
:100FF8008E6806FA0CF63E43C660EE0051D5D8F866
:10100800186046F00106C8F81860D8F8186023F090
:10101800030707F1804706F0010607F580370196B8
:1010280003F0030E019EBE684FEA8E0E4FF00F0CC0
:101038000CFA0EFCB0F1904F26EA0C0C33D0204E7F
:10104800B04232D006F58066B04230D006F58066F0
:10105800B0422ED006F58066B0420CBF04260526A5
:1010680006FA0EF646EA0C06BE602668D74315F463
:10107800803F0CBF3E4016432660666815F4003F6B
:101088000CBF3E4016436660A66815F4801F0CBF6F
:101098003E401643A660E668AD0254BF3E40164384
:1010A800E660013352E70026DAE70126D8E7022690
:1010B800D6E70326D4E700BF001002400004014031
:1010C800000400480AB181617047816270470000DE
:1010D80002688168C36930B50569146829434569A0
:1010E80024F41644294324F00C04194321431160C5
:1010F8005168C468056A21F44051214351609468DD
:10110800816924F4306429432143916062498A4209
:1011180016D101F55841096B01F003010139022983
:1011280000F2B2805D4CB3F5004F615C77D10829BD
:1011380072D8DFE801F0ACAC2471AC717171A40015
:1011480057498A422CD101F5E631096B01F4403147
:10115800B1F5003F00F090800BD8002900F0948092
:10116800B1F5803F00F09080B3F5004F54D00120D6
:1011780015E0B1F5403FF7D1B3F5004F66D14168AE
:101188004B0803F1F47303F59043B3FBF1F300202C
:101198009BB223F00F01C3F342030B43D36030BD6E
:1011A80040498A4210D101F5E431096B01F440212C
:1011B800B1F5002F60D004D8002965D0B1F5802F93
:1011C800D0E7B1F5402FD6E737498A4210D101F56B
:1011D800E231096B01F44011B1F5001F4CD004D87D
:1011E800002951D0B1F5801FBCE7B1F5401FC2E717
:1011F8002E498A42B8D101F5E031096B01F440016A
:10120800B1F5000F38D004D800293DD0B1F5800FD2
:10121800A8E7B1F5400FAEE701200023B9E7082998
:10122800A5D801A353F821F06D1200086D1200082B
:1012380055120008771100086D1200087711000890
:1012480077110008771100087712000841684B08E9
:1012580003F5740303F51053B3FBF1F39BB2D360AA
:1012680000209CE741684B0803F5E103F4E7416877
:101278004B0803F50043EFE7B3F5004FF7D141689A
:101288004B0803F5803380E7B3F5004FEAD1416896
:101298004B0803F5610378E700380140881E000811
:1012A8000044004000480040004C0040005000400E
:1012B800F8B5069F044615461E462268D36931EAEA
:1012C80003030CBF01230023AB4201D0002014E02C
:1012D8007B1CF3D097B923681A6822F4D0721A607D
:1012E8009A6822F001029A60202384F8693084F811
:1012F8006A30002384F868300320F8BDFFF702FB4A
:10130800801BB842D9D9E6E737B504460021C16643
:10131800FFF7F8FA23681B681A07054617D42368ED
:101328001B685B070AD56FF07E43009300222B46AB
:101338004FF480012046FFF7BBFFA0B9202300200F
:1013480084F8693084F8680084F86A300CE06FF03B
:101358007E4300930A4603464FF400112046FFF7E8
:10136800A7FF0028DBD0032003B030BD10B504462A
:1013780028B390F8693003F0FF020BB980F86820B1
:101388002268242384F86930136823F0010313606A
:101398002046FFF79DFE012811D023685A6822F4E1
:1013A80090425A609A6822F02A029A601A6842F0BB
:1013B800010220461A60BDE81040FFF7A5BF0120D2
:1013C80010BDF7B51E4690F86930202B0D4604462F
:1013D80011464AD1002D46D0002A44D090F86830F2
:1013E800012B42D0012380F868300023C3662123F3
:1013F80080F86930FFF786FAA4F850100746A4F879
:101408005210B4F8522092B262B900963B4640217D
:101418002046FFF74DFF98B9202384F8693084F8F7
:1014280068000EE0B4F852200096013A92B2A4F88F
:1014380052203B46002280212046FFF739FF10B199
:10144800032003B0F0BDA3682268B3F5805F07D11D
:1014580023692BB935F8023BC3F308031385D0E79A
:1014680015F8013BFAE70120EBE70220E9E72DE94F
:10147800F3411E4690F86A30202B0D46044611466B
:101488005CD1002D58D0002A56D090F86830012B36
:1014980054D0012380F8683003684FF0FF321A6295
:1014A8000023C366222380F86A30FFF72BFAA3686B
:1014B800A4F85810B3F5805F8046A4F85A1015D1E7
:1014C80023698BB940F2FF13A4F85C30B4F85C7060
:1014D800B4F85A0080B280B9202384F86A3084F8BE
:1014E800680002B0BDE8F081FF23EDE7002BEDD1E5
:1014F8002369002BF8D07F23E6E7B4F85A2000963A
:10150800013A92B2A4F85A204346002220212046EC
:10151800FFF7CEFEA0B9A2682368B2F5805F06D1B6
:10152800226922B99B8C3B4025F8023BD0E79B8C73
:101538003B4005F8013BCBE70120D2E70220D0E78A
:101548000320CEE7014800F016B800BF580100207C
:101558007047704701468022014800F011B800BF6B
:1015680058010020034602460121014800F04ABC08
:101578005801002070474FF48C720021FEF702BF1B
:10158800C02AF0B549D0B2F5807F48D0802A40F013
:10159800E5800A230446036000F10803520944F871
:1015A800043F01EB82028A423BD103680C2B46D0F0
:1015B8000E2B7CD00A2B2ED16A4D00F1A0062946AD
:1015C800426955F8044B8768C2F307230B447C40F3
:1015D80093F82830634001EB1264103094F82840E7
:1015E80083EA044351FA82F494F8284083EA0463B6
:1015F800C2F307440C4494F8284083EA042350F8C3
:10160800044C836063400468C360634003615340D3
:1016180043618642D4D10020A2E00C23BAE70E230E
:10162800B8E78B784D781B0443EA05230D782B43E4
:10163800CD7843EA056344F8043F0431B3E7494CE5
:1016480000F1C0052146C26954F8046B8768C2F3EB
:1016580007230B447E4093F82830734001EB126651
:10166800183096F8286083EA064351FA82F696F80D
:10167800286083EA0663C2F307460E4496F828609A
:1016880083EA062350F80C6C8360734050F8086CAA
:10169800C360734050F8046C03617340066843618B
:1016A800734083615340C3618542CCD1B3E72D4D6C
:1016B80000F1E0062946446A55F8042B8768C4F30C
:1016C80007230B447A4093F828308769534001EB8D
:1016D8001462203092F8282083EA024351FA84F2F7
:1016E80092F8282083EA0263C4F307420A4492F876
:1016F800282083EA022350F8142C8360534050F8C2
:10170800102CC360534050F80C2C0361534051FA1D
:1017180083F2436192F828207A4001EB136797F827
:10172800287082EA0762C3F307270F44C3F307430D
:101738000B4497F8287093F8283082EA072282EA47
:10174800034350F8042C836153400268C36153403B
:101758000362634043628642ADD15CE76FF01F00CD
:10176800F0BD00BF8C1E00082DE9F04F43680E68DD
:101778001C684D6800688F6866405C6865409C68B6
:101788008DB04010013884EA070BCF68D968009003
:1017980003F13000C24B7940F7B203EB870750F8EA
:1017A800104C3F6B019450F8204C87EA040E0F0E42
:1017B80003EB870750F81C4CD7F830748EEA070EF5
:1017C800C5F3072703EB87074FEA156AD7F8307880
:1017D8008EEA070ECBF3074703EB870703EB8A0A6A
:1017E800D7F8307CDAF830A48EEA070EEFB203EBB4
:1017F8008707C5F307453F6B87EA040C370E03EBF1
:10180800870750F8184CD7F830748CEA070CCBF3DC
:10181800072703EB870703EB8505D7F830788CEAB1
:10182800070CC1F3074703EB87075FFA8EF8D7F871
:10183800307C8CEA070C5FFA8BF703EB8707CCF355
:1018480007293F6B674087EA0A07C1F3072AC9B22D
:1018580003EB810150F8144C096B03EB8A0A6140D1
:10186800DAF830A84FEA1B6403EB840487EA0A0716
:10187800C6F3074AC6F30726D4F8304403EB8606B6
:101888006140D6F830486140D5F8304C03EB8A0AFD
:101898006140DAF830AC50F80C4C0294C1F30746BA
:1018A80003964FEA1E6687EA0A07049650F8086C02
:1018B8000596FEB20696C1F307260796CEF30746AD
:1018C80008960D0E4FEA1C66C9B2099650F8046CCA
:1018D8000B9100990A960029C7F3074A5FFA8CF41E
:1018E800C7F3072BCEF3072ECCF3074C4FEA176745
:1018F80000F1200077DC6B4B019E9844994498F8DE
:10190800280099F828109A4470401D4480EA012064
:101918009AF82810059E1C449B4480EA014095F8DB
:10192800281094F82840029D80EA01609BF828104E
:1019380010706C4084EA01240399069D19441D44E3
:1019480091F8281095F8285084EA0144049919441C
:10195800754091F828100A9E84EA01640799147169
:1019680019449E4491F8281085EA012508991944DC
:101978009C4491F8281085EA0145099919441F44A7
:1019880091F8281085EA01650B99194497F82830D1
:1019980091F8281071409EF8286081EA06219CF889
:1019A800286081EA064181EA0363010A5170010C4B
:1019B8009170000E210AD0705171210C9171290A81
:1019C8005172290C9172190A240E157213732D0E77
:1019D80051730020190C1B0ED471D5729173D373F7
:1019E8000DB0BDE8F08F03EB880803EB8505D8F848
:1019F8003060D5F8301403EB89094E40019903EBA8
:101A08008A0A4E40D9F830184E40DAF8301C4E4059
:101A1800049903EB840403EB8101256BD1F830149E
:101A2800099C4D4003EB8B0B02994D40DBF83018B5
:101A38004D40039903EB810103EB8408D1F8301C76
:101A48004D40069903EB810103EB87070C6BD8F82F
:101A58003014D7F830744C4005994C40079903EB83
:101A6800810103EB8E0ED1F830184C40089903EB36
:101A7800810103EB8C0CD1F8301C84EA010B0B9923
:101A8800009C03EB8101013C096B009479400A9F9B
:101A98007940DEF830787940DCF8307C79407BE6B4
:101AA800842F00088C1E00082DE9F04F43680D684C
:101AB8001C684E688F68006865405C6866409C6872
:101AC8008DB030337C404010CF6853F8241C00930D
:101AD8000138CA4B019079400098EFB250F8100CC9
:101AE800029003EB87070098D7F8287150F8200C6C
:101AF80087EA000C370E03EB87070098D7F828759C
:101B080050F8140C8CEA070CC1F3072703EB87077E
:101B18004FEA116AD7F828798CEA070CC4F307470B
:101B280003EB870703EB8A0AD7F8287DDAF828A59C
:101B38008CEA070CCFB203EB8707C1F30741D7F84C
:101B4800287187EA000E2F0E03EB87070098D7F855
:101B5800287550F8180C8EEA070EC4F3072703EB14
:101B6800870703EB8101D7F82879D1F8281D8EEA79
:101B7800070EC6F3074703EB87075FFA8CF8D7F819
:101B8800287D8EEA070EE7B203EB8707240ED7F805
:101B98002871474087EA0A07C6F3072A03EB8A0A2F
:101BA800F6B2DAF828A9009803EB860603EB84045A
:101BB80050F81C0CD6F82861D4F8284587EA0A079B
:101BC800C5F3074AC5F3072503EB8505464066407C
:101BD800D5F8284903EB8A0A66404E40CEF3074001
:101BE8000099DAF828AD0490009851F80C1C03917C
:101BF80087EA0A0750F8080C0590F8B20690C6F371
:101C080007200790CCF3074008904FEA1E60099020
:101C1800009850F8040C0A905FFA8EF00B90009828
:101C28002030009001980028CEF30729C7F3074A0F
:101C3800CCF307244FEA176BC7F3072E4FEA166554
:101C4800F1B2C6F307474FEA1C6C76DC6C4B02987E
:101C58009844994418F8C86C19F8C89C9A441D44CB
:101C6800464019441AF8C80C11F8C81C86EA092617
:101C78001C4486EA004615F8C80C039D14F8C84CA5
:101C8800694081EA0421049C1C449B4414F8C84C14
:101C980081EA04411BF8C84C81EA0461079C117170
:101CA8001C4486EA006014F8C86C069C10701C443A
:101CB8009E4414F8C85C059C6540089C1C4485EA51
:101CC800062514F8C84C0A9E85EA0445099C1C445C
:101CD8009C4414F8C84C85EA04650B9C1C4414F811
:101CE800C84C74401EF8C86C84EA0624DE191CF837
:101CF800C83C16F8C86C84EA064484EA0363040AFC
:101D08005470040C000ED070080A5071080C090EAB
:101D180094709071D171290A5172290C9172190A23
:101D2800157213732D0E51730020190C1B0ED572EA
:101D38009173D3730DB0BDE8F08F03EB880803EB04
:101D48008505D8F82861D5F828550998754003EB1A
:101D58008909029E03EB8A0A7540D9F8286903EBC2
:101D68008101754003EB8B0BDAF8286D7540D1F8CB
:101D78002861DBF8281503EB84044E4003994E4094
:101D8800D4F828194E40049903EB810103EB80082D
:101D9800D1F8281D0A984E40069903EB810103EB00
:101DA8008C0CD1F82841D8F82815DCF828C54C4007
:101DB80005994C40079903EB810103EB8E0ED1F88E
:101DC80028194C40089903EB810103EB8707D1F8E8
:101DD800281DD7F8287D4C400B9903EB8101D1F8D9
:101DE800281181EA0C014140DEF828C9019881EAEE
:101DF8000C010138794001906EE600BF8C1E000886
:101E08007C40000810B40C46012C11461A4602D139
:101E180010BCFFF7A9BC10BCFFF746BE002103E0C9
:101E28000B4B5B58435004310A480B4B42189A42FB
:101E3800F6D30A4A02E0002313600432084B9A42A0
:101E4800F9D3AFF30080FEF7DFF9FEF731FBFEE7C9
:101E5800D040000800000020000000200000002002
:101E680070020020FEE70000F8B500BFF8BC08BC0F
:101E78009E467047F8B500BFF8BC08BC9E46704740
:101E88000408020001000000020000000400000035
:101E980008000000100000002000000040000000C2
:101EA800800000001B00000036000000637C777B88
:101EB800F26B6FC53001672BFED7AB76CA82C97D3E
:101EC800FA5947F0ADD4A2AF9CA472C0B7FD9326CF
:101ED800363FF7CC34A5E5F171D8311504C723C3D3
:101EE8001896059A071280E2EB27B27509832C1A17
:101EF8001B6E5AA0523BD6B329E32F8453D100ED71
:101F080020FCB15B6ACBBE394A4C58CFD0EFAAFB54
:101F1800434D338545F9027F503C9FA851A3408F1C
:101F2800929D38F5BCB6DA2110FFF3D2CD0C13EC34
:101F38005F974417C4A77E3D645D197360814FDCC9
:101F4800222A908846EEB814DE5E0BDBE0323A0AAD
:101F58004906245CC2D3AC629195E479E7C8376D31
:101F68008DD54EA96C56F4EA657AAE08BA78252E56
:101F78001CA6B4C6E8DD741F4BBD8B8A703EB566DF
:101F88004803F60E613557B986C11D9EE1F89811D0
:101F980069D98E949B1E87E9CE5528DF8CA1890DBF
:101FA800BFE6426841992D0FB054BB1651F4A750B3
:101FB8007E4165531A17A4C33A275E963BAB6BCB99
:101FC8001F9D45F1ACFA58AB4BE303932030FA550B
:101FD800AD766DF688CC7691F5024C254FE5D7FCA9
:101FE800C52ACBD726354480B562A38FDEB15A49BE
:101FF80025BA1B6745EA0E985DFEC0E1C32F75023E
:10200800814CF0128D4697A36BD3F9C6038F5FE717
:1020180015929C95BF6D7AEB955259DAD4BE832DF3
:10202800587421D349E069298EC9C84475C2896AA0
:10203800F48E797899583E6B27B971DDBEE14FB6B9
:10204800F088AD17C920AC667DCE3AB463DF4A1874
:10205800E51A31829751336062537F45B16477E066
:10206800BB6BAE84FE81A01CF9082B94704868589D
:102078008F45FD1994DE6C87527BF8B7AB73D32379
:10208800724B02E2E31F8F576655AB2AB2EB280763
:102098002FB5C20386C57B9AD33708A5302887F2A7
:1020A80023BFA5B202036ABAED16825C8ACF1C2B45
:1020B800A779B492F307F2F04E69E2A165DAF4CD9C
:1020C8000605BED5D134621FC4A6FE8A342E539DA0
:1020D800A2F355A0058AE132A4F6EB750B83EC391F
:1020E8004060EFAA5E719F06BD6E10513E218AF9CD
:1020F80096DD063DDD3E05AE4DE6BD4691548DB5F7
:1021080071C45D050406D46F605015FF1998FB244F
:10211800D6BDE997894043CC67D99E77B0E842BDE0
:1021280007898B88E7195B3879C8EEDBA17C0A47F9
:102138007C420FE9F8841EC90000000009808683EC
:10214800322BED481E1170AC6C5A724EFD0EFFFB1F
:102158000F8538563DAED51E362D39270A0FD9645E
:10216800685CA6219B5B54D124362E3A0C0A67B1D1
:102178009357E70FB4EE96D21B9B919E80C0C54F34
:1021880061DC20A25A774B691C121A16E293BA0A2C
:10219800C0A02AE53C22E043121B171D0E090D0BB7
:1021A800F28BC7AD2DB6A8B9141EA9C857F1198569
:1021B800AF75074CEE99DDBBA37F60FDF701269F45
:1021C8005C72F5BC44663BC55BFB7E348B43297669
:1021D800CB23C6DCB6EDFC68B8E4F163D731DCCAC2
:1021E800426385101397224084C61120854A247DB6
:1021F800D2BB3DF8AEF93211C729A16D1D9E2F4BF8
:10220800DCB230F30D8652EC77C1E3D02BB3166CF9
:10221800A970B999119448FA47E96422A8FC8CC4BA
:10222800A0F03F1A567D2CD8223390EF87494EC72D
:10223800D938D1C18CCAA2FE98D40B36A6F581CF65
:10224800A57ADE28DAB78E263FADBFA42C3A9DE4E6
:102258005078920D6A5FCC9B547E4662F68D13C20D
:1022680090D8B8E82E39F75E82C3AFF59F5D80BE7F
:1022780069D0937C6FD52DA9CF2512B3C8AC993BF3
:1022880010187DA7E89C636EDB3BBB7BCD267809E5
:102298006E5918F4EC9AB701834F9AA8E6956E65C3
:1022A800AAFFE67E21BCCF08EF15E8E6BAE79BD97E
:1022B8004A6F36CEEA9F09D429B07CD631A4B2AF92
:1022C8002A3F2331C6A5943035A266C0744EBC3768
:1022D800FC82CAA6E090D0B033A7D815F104984A7A
:1022E80041ECDAF77FCD500E1791F62F764DD68D4B
:1022F80043EFB04DCCAA4D54E49604DF9ED1B5E32C
:102308004C6A881BC12C1FB84665517F9D5EEA0444
:10231800018C355DFA877473FB0B412EB3671D5A28
:1023280092DBD252E91056336DD647139AD7618C97
:1023380037A10C7A59F8148EEB133C89CEA927EEF5
:10234800B761C935E11CE5ED7A47B13C9CD2DF594C
:1023580055F2733F1814CE7973C737BF53F7CDEAD8
:102368005FFDAA5BDF3D6F147844DB86CAAFF3815B
:10237800B968C43E3824342CC2A3405F161DC3720A
:10238800BCE2250C283C498BFF0D954139A8017109
:10239800080CB3DED8B4E49C6456C1907BCB84614E
:1023A800D532B670486C5C74D0B85742F4A7505117
:1023B8004165537E17A4C31A275E963AAB6BCB3B95
:1023C8009D45F11FFA58ABACE303934B30FA552007
:1023D800766DF6ADCC769188024C25F5E5D7FC4FA5
:1023E8002ACBD7C53544802662A38FB5B15A49DEBA
:1023F800BA1B6725EA0E9845FEC0E15D2F7502C33A
:102408004CF012814697A38DD3F9C66B8F5FE70313
:10241800929C95156D7AEBBF5259DA95BE832DD4EF
:102428007421D358E0692949C9C8448EC2896A759C
:102438008E7978F4583E6B99B971DD27E14FB6BEB5
:1024480088AD17F020AC66C9CE3AB47DDF4A186370
:102458001A3182E551336097537F45626477E0B162
:102468006BAE84BB81A01CFE082B94F94868587099
:1024780045FD198FDE6C87947BF8B75273D323AB75
:102488004B02E2721F8F57E355AB2A66EB2807B25F
:10249800B5C2032FC57B9A863708A5D32887F230A3
:1024A800BFA5B223036ABA0216825CEDCF1C2B8A41
:1024B80079B492A707F2F0F369E2A14EDAF4CD6598
:1024C80005BED50634621FD1A6FE8AC42E539D349C
:1024D800F355A0A28AE13205F6EB75A483EC390B1B
:1024E80060EFAA40719F065E6E1051BD218AF93EC9
:1024F800DD063D963E05AEDDE6BD464D548DB591F3
:10250800C45D057106D46F045015FF6098FB24194B
:10251800BDE997D64043CC89D99E7767E842BDB0DC
:10252800898B8807195B38E7C8EEDB797C0A47A1F5
:10253800420FE97C841EC9F80000000080868309E8
:102548002BED48321170AC1E5A724E6C0EFFFBFD1B
:102558008538560FAED51E3D2D3927360FD9640A5A
:102568005CA621685B54D19B362E3A240A67B10CCD
:1025780057E70F93EE96D2B49B919E1BC0C54F8030
:10258800DC20A261774B695A121A161C93BA0AE228
:10259800A02AE5C022E0433C1B171D12090D0B0EB3
:1025A8008BC7ADF2B6A8B92D1EA9C814F119855765
:1025B80075074CAF99DDBBEE7F60FDA301269FF741
:1025C80072F5BC5C663BC544FB7E345B4329768B65
:1025D80023C6DCCBEDFC68B6E4F163B831DCCAD7BE
:1025E8006385104297224013C61120844A247D85B2
:1025F800BB3DF8D2F93211AE29A16DC79E2F4B1DF4
:10260800B230F3DC8652EC0DC1E3D077B3166C2BF5
:1026180070B999A99448FA11E9642247FC8CC4A8B6
:10262800F03F1AA07D2CD8563390EF22494EC78729
:1026380038D1C1D9CAA2FE8CD40B3698F581CFA661
:102648007ADE28A5B78E26DAADBFA43F3A9DE42CE2
:1026580078920D505FCC9B6A7E4662548D13C2F609
:10266800D8B8E89039F75E2EC3AFF5825D80BE9F7B
:10267800D0937C69D52DA96F2512B3CFAC993BC8EF
:10268800187DA7109C636EE83BBB7BDB267809CDE1
:102698005918F46E9AB701EC4F9AA883956E65E6BF
:1026A800FFE67EAABCCF082115E8E6EFE79BD9BA7A
:1026B8006F36CE4A9F09D4EAB07CD629A4B2AF318E
:1026C8003F23312AA59430C6A266C0354EBC377464
:1026D80082CAA6FC90D0B0E0A7D8153304984AF176
:1026E800ECDAF741CD500E7F91F62F174DD68D7647
:1026F800EFB04D43AA4D54CC9604DFE4D1B5E39E28
:102708006A881B4C2C1FB8C165517F465EEA049D40
:102718008C355D01877473FA0B412EFB671D5AB324
:10272800DBD25292105633E9D647136DD7618C9A93
:10273800A10C7A37F8148E59133C89EBA927EECEF1
:1027480061C935B71CE5EDE147B13C7AD2DF599C48
:10275800F2733F5514CE7918C737BF73F7CDEA53D4
:10276800FDAA5B5F3D6F14DF44DB8678AFF381CA57
:1027780068C43EB924342C38A3405FC21DC3721606
:10278800E2250CBC3C498B280D9541FFA801713905
:102798000CB3DE08B4E49CD856C19064CB84617B4A
:1027A80032B670D56C5C7448B85742D05051F4A713
:1027B800537E4165C31A17A4963A275ECB3BAB6B91
:1027C800F11F9D45ABACFA58934BE303552030FA03
:1027D800F6AD766D9188CC7625F5024CFC4FE5D7A1
:1027E800D7C52ACB802635448FB562A349DEB15AB6
:1027F8006725BA1B9845EA0EE15DFEC002C32F7536
:1028080012814CF0A38D4697C66BD3F9E7038F5F0F
:102818009515929CEBBF6D7ADA9552592DD4BE83EB
:10282800D35874212949E069448EC9C86A75C28998
:1028380078F48E796B99583EDD27B971B6BEE14FB1
:1028480017F088AD66C920ACB47DCE3A1863DF4A6C
:1028580082E51A31609751334562537FE0B164775E
:1028680084BB6BAE1CFE81A094F9082B5870486895
:10287800198F45FD8794DE6CB7527BF823AB73D371
:10288800E2724B0257E31F8F2A6655AB07B2EB285B
:10289800032FB5C29A86C57BA5D33708F23028879F
:1028A800B223BFA5BA02036A5CED16822B8ACF1C3D
:1028B80092A779B4F0F307F2A14E69E2CD65DAF494
:1028C800D50605BE1FD134628AC4A6FE9D342E5398
:1028D800A0A2F35532058AE175A4F6EB390B83EC17
:1028E800AA4060EF065E719F51BD6E10F93E218AC5
:1028F8003D96DD06AEDD3E05464DE6BDB591548DEF
:102908000571C45D6F0406D4FF605015241998FB47
:1029180097D6BDE9CC8940437767D99EBDB0E842D8
:102928008807898B38E7195BDB79C8EE47A17C0AF1
:10293800E97C420FC9F8841E0000000083098086E4
:1029480048322BEDAC1E11704E6C5A72FBFD0EFF17
:10295800560F85381E3DAED527362D39640A0FD956
:1029680021685CA6D19B5B543A24362EB10C0A67C9
:102978000F9357E7D2B4EE969E1B9B914F80C0C52C
:10298800A261DC20695A774B161C121A0AE293BA24
:10299800E5C0A02A433C22E01D121B170B0E090DAF
:1029A800ADF28BC7B92DB6A8C8141EA98557F11961
:1029B8004CAF7507BBEE99DDFDA37F609FF701263D
:1029C800BC5C72F5C544663B345BFB7E768B432961
:1029D800DCCB23C668B6EDFC63B8E4F1CAD731DCBA
:1029E80010426385401397222084C6117D854A24AE
:1029F800F8D2BB3D11AEF9326DC729A14B1D9E2FF0
:102A0800F3DCB230EC0D8652D077C1E36C2BB316F1
:102A180099A970B9FA1194482247E964C4A8FC8CB2
:102A28001AA0F03FD8567D2CEF223390C787494E25
:102A3800C1D938D1FE8CCAA23698D40BCFA6F5815D
:102A480028A57ADE26DAB78EA43FADBFE42C3A9DDE
:102A58000D5078929B6A5FCC62547E46C2F68D1305
:102A6800E890D8B85E2E39F7F582C3AFBE9F5D8077
:102A78007C69D093A96FD52DB3CF25123BC8AC99EB
:102A8800A710187D6EE89C637BDB3BBB09CD2678DD
:102A9800F46E591801EC9AB7A8834F9A65E6956EBB
:102AA8007EAAFFE60821BCCFE6EF15E8D9BAE79B76
:102AB800CE4A6F36D4EA9F09D629B07CAF31A4B28A
:102AC800312A3F2330C6A594C035A26637744EBC60
:102AD800A6FC82CAB0E090D01533A7D84AF1049872
:102AE800F741ECDA0E7FCD502F1791F68D764DD643
:102AF8004D43EFB054CCAA4DDFE49604E39ED1B524
:102B08001B4C6A88B8C12C1F7F466551049D5EEA3C
:102B18005D018C3573FA87742EFB0B415AB3671D20
:102B28005292DBD233E91056136DD6478C9AD7618F
:102B38007A37A10C8E59F81489EB133CEECEA927ED
:102B480035B761C9EDE11CE53C7A47B1599CD2DF44
:102B58003F55F273791814CEBF73C737EA53F7CDD0
:102B68005B5FFDAA14DF3D6F867844DB81CAAFF353
:102B78003EB968C42C3824345FC2A34072161DC302
:102B88000CBCE2258B283C4941FF0D957139A80101
:102B9800DE080CB39CD8B4E4906456C1617BCB8446
:102BA80070D532B674486C5C42D0B857A75051F40F
:102BB80065537E41A4C31A175E963A276BCB3BAB8D
:102BC80045F11F9D58ABACFA03934BE3FA552030FF
:102BD8006DF6AD76769188CC4C25F502D7FC4FE59D
:102BE800CBD7C52A44802635A38FB5625A49DEB1B2
:102BF8001B6725BA0E9845EAC0E15DFE7502C32F32
:102C0800F012814C97A38D46F9C66BD35FE7038F0B
:102C18009C9515927AEBBF6D59DA9552832DD4BEE7
:102C280021D35874692949E0C8448EC9896A75C294
:102C38007978F48E3E6B995871DD27B94FB6BEE1AD
:102C4800AD17F088AC66C9203AB47DCE4A1863DF68
:102C58003182E51A336097517F45625377E0B1645A
:102C6800AE84BB6BA01CFE812B94F9086858704891
:102C7800FD198F456C8794DEF8B7527BD323AB736D
:102C880002E2724B8F57E31FAB2A66552807B2EB57
:102C9800C2032FB57B9A86C508A5D33787F230289B
:102CA800A5B223BF6ABA0203825CED161C2B8ACF39
:102CB800B492A779F2F0F307E2A14E69F4CD65DA90
:102CC800BED50605621FD134FE8AC4A6539D342E94
:102CD80055A0A2F3E132058AEB75A4F6EC390B8313
:102CE800EFAA40609F065E711051BD6E8AF93E21C1
:102CF800063D96DD05AEDD3EBD464DE68DB59154EB
:102D08005D0571C4D46F040615FF6050FB24199843
:102D1800E997D6BD43CC89409E7767D942BDB0E8D4
:102D28008B8807895B38E719EEDB79C80A47A17CED
:102D38000FE97C421EC9F8840000000086830980E0
:102D4800ED48322B70AC1E11724E6C5AFFFBFD0E13
:102D580038560F85D51E3DAE3927362DD9640A0F52
:102D6800A621685C54D19B5B2E3A243667B10C0AC5
:102D7800E70F935796D2B4EE919E1B9BC54F80C028
:102D880020A261DC4B695A771A161C12BA0AE29320
:102D98002AE5C0A0E0433C22171D121B0D0B0E09AB
:102DA800C7ADF28BA8B92DB6A9C8141E198557F15D
:102DB800074CAF75DDBBEE9960FDA37F269FF70139
:102DC800F5BC5C723BC544667E345BFB29768B435D
:102DD800C6DCCB23FC68B6EDF163B8E4DCCAD731B6
:102DE8008510426322401397112084C6247D854AAA
:102DF8003DF8D2BB3211AEF9A16DC7292F4B1D9EEC
:102E080030F3DCB252EC0D86E3D077C1166C2BB3ED
:102E1800B999A97048FA1194642247E98CC4A8FCAE
:102E28003F1AA0F02CD8567D90EF22334EC7874921
:102E3800D1C1D938A2FE8CCA0B3698D481CFA6F559
:102E4800DE28A57A8E26DAB7BFA43FAD9DE42C3ADA
:102E5800920D5078CC9B6A5F4662547E13C2F68D01
:102E6800B8E890D8F75E2E39AFF582C380BE9F5D73
:102E7800937C69D02DA96FD512B3CF25993BC8ACE7
:102E88007DA71018636EE89CBB7BDB3B7809CD26D9
:102E980018F46E59B701EC9A9AA8834F6E65E695B7
:102EA800E67EAAFFCF0821BCE8E6EF159BD9BAE772
:102EB80036CE4A6F09D4EA9F7CD629B0B2AF31A486
:102EC80023312A3F9430C6A566C035A2BC37744E5C
:102ED800CAA6FC82D0B0E090D81533A7984AF1046E
:102EE800DAF741EC500E7FCDF62F1791D68D764D3F
:102EF800B04D43EF4D54CCAA04DFE496B5E39ED120
:102F0800881B4C6A1FB8C12C517F4665EA049D5E38
:102F1800355D018C7473FA87412EFB0B1D5AB3671C
:102F2800D25292DB5633E91047136DD6618C9AD78B
:102F38000C7A37A1148E59F83C89EB1327EECEA9E9
:102F4800C935B761E5EDE11CB13C7A47DF599CD240
:102F5800733F55F2CE79181437BF73C7CDEA53F7CC
:102F6800AA5B5FFD6F14DF3DDB867844F381CAAF4F
:102F7800C43EB968342C3824405FC2A3C372161DFE
:102F8800250CBCE2498B283C9541FF0D017139A8FD
:102F9800B3DE080CE49CD8B4C190645684617BCB42
:102FA800B670D5325C74486C5742D0B8C66363A516
:102FB800F87C7C84EE777799F67B7B8DFFF2F20DB7
:102FC800D66B6BBDDE6F6FB191C5C55460303050A4
:102FD80002010103CE6767A9562B2B7DE7FEFE1978
:102FE800B5D7D7624DABABE6EC76769A8FCACA45B1
:102FF8001F82829D89C9C940FA7D7D87EFFAFA153B
:10300800B25959EB8E4747C9FBF0F00B41ADADEC17
:10301800B3D4D4675FA2A2FD45AFAFEA239C9CBF9F
:1030280053A4A4F7E47272969BC0C05B75B7B7C28D
:10303800E1FDFD1C3D9393AE4C26266A6C36365A4C
:103048007E3F3F41F5F7F70283CCCC4F6834345CC0
:1030580051A5A5F4D1E5E534F9F1F108E2717193D0
:10306800ABD8D873623131532A15153F0804040CC4
:1030780095C7C752462323659DC3C35E30181828D9
:10308800379696A10A05050F2F9A9AB50E070709D4
:10309800241212361B80809BDFE2E23DCDEBEB264B
:1030A8004E2727697FB2B2CDEA75759F1209091BB1
:1030B8001D83839E582C2C74341A1A2E361B1B2DF4
:1030C800DC6E6EB2B45A5AEE5BA0A0FBA45252F664
:1030D800763B3B4DB7D6D6617DB3B3CE5229297B1B
:1030E800DDE3E33E5E2F2F7113848497A65353F5D7
:1030F800B9D1D16800000000C1EDED2C402020605E
:10310800E3FCFC1F79B1B1C8B65B5BEDD46A6ABE5B
:103118008DCBCB4667BEBED97239394B944A4ADE4D
:10312800984C4CD4B05858E885CFCF4ABBD0D06B18
:10313800C5EFEF2A4FAAAAE5EDFBFB16864343C568
:103148009A4D4DD766333355118585948A4545CFB9
:10315800E9F9F91004020206FE7F7F81A05050F0C1
:10316800783C3C44259F9FBA4BA8A8E3A25151F351
:103178005DA3A3FE804040C0058F8F8A3F9292AD29
:10318800219D9DBC70383848F1F5F50463BCBCDF5F
:1031980077B6B6C1AFDADA75422121632010103054
:1031A800E5FFFF1AFDF3F30EBFD2D26D81CDCD4CF2
:1031B800180C0C1426131335C3ECEC2FBE5F5FE11B
:1031C800359797A2884444CC2E17173993C4C4570F
:1031D80055A7A7F2FC7E7E827A3D3D47C86464AC61
:1031E800BA5D5DE73219192BE6737395C06060A06C
:1031F800198181989E4F4FD1A3DCDC7F442222663F
:10320800542A2A7E3B9090AB0B8888838C4646CA0A
:10321800C7EEEE296BB8B8D32814143CA7DEDE79C4
:10322800BC5E5EE2160B0B1DADDBDB76DBE0E03B44
:1032380064323256743A3A4E140A0A1E924949DBED
:103248000C06060A4824246CB85C5CE49FC2C25D84
:10325800BDD3D36E43ACACEFC46262A6399191A8DA
:10326800319595A4D3E4E437F279798BD5E7E73241
:103278008BC8C8436E373759DA6D6DB7018D8D8CA1
:10328800B1D5D5649C4E4ED249A9A9E0D86C6CB48E
:10329800AC5656FAF3F4F407CFEAEA25CA6565AFE7
:1032A800F47A7A8E47AEAEE9100808186FBABAD524
:1032B800F07878884A25256F5C2E2E72381C1C24DD
:1032C80057A6A6F173B4B4C797C6C651CBE8E8238E
:1032D800A1DDDD7CE874749C3E1F1F21964B4BDDFD
:1032E80061BDBDDC0D8B8B860F8A8A85E07070907E
:1032F8007C3E3E4271B5B5C4CC6666AA904848D8B3
:1033080006030305F7F6F6011C0E0E12C26161A34F
:103318006A35355FAE5757F969B9B9D017868691BE
:1033280099C1C1583A1D1D27279E9EB9D9E1E13898
:10333800EBF8F8132B9898B322111133D26969BBB3
:10334800A9D9D970078E8E89339494A72D9B9BB6E3
:103358003C1E1E2215878792C9E9E92087CECE49EF
:10336800AA5555FF50282878A5DFDF7A038C8C8F63
:1033780059A1A1F8098989801A0D0D1765BFBFDA0F
:10338800D7E6E631844242C6D06868B8824141C374
:10339800299999B05A2D2D771E0F0F117BB0B0CBFC
:1033A800A85454FC6DBBBBD62C16163A6363A5C64D
:1033B8007C7C84F8777799EE7B7B8DF6F2F20DFFB3
:1033C8006B6BBDD66F6FB1DEC5C5549130305060A0
:1033D800010103026767A9CE2B2B7D56FEFE19E774
:1033E800D7D762B5ABABE64D76769AECCACA458FAD
:1033F80082829D1FC9C940897D7D87FAFAFA15EF37
:103408005959EBB24747C98EF0F00BFBADADEC4113
:10341800D4D467B3A2A2FD5FAFAFEA459C9CBF239B
:10342800A4A4F753727296E4C0C05B9BB7B7C27589
:10343800FDFD1CE19393AE3D26266A4C36365A6C48
:103448003F3F417EF7F702F5CCCC4F8334345C68BC
:10345800A5A5F451E5E534D1F1F108F9717193E2CC
:10346800D8D873AB3131536215153F2A04040C08C0
:10347800C7C7529523236546C3C35E9D18182830D5
:103488009696A13705050F0A9A9AB52F0707090ED0
:103498001212362480809B1BE2E23DDFEBEB26CD47
:1034A8002727694EB2B2CD7F75759FEA09091B12AD
:1034B80083839E1D2C2C74581A1A2E341B1B2D36F0
:1034C8006E6EB2DC5A5AEEB4A0A0FB5B5252F6A460
:1034D8003B3B4D76D6D661B7B3B3CE7D29297B5217
:1034E800E3E33EDD2F2F715E848497135353F5A6D3
:1034F800D1D168B900000000EDED2CC1202060405A
:10350800FCFC1FE3B1B1C8795B5BEDB66A6ABED457
:10351800CBCB468DBEBED96739394B724A4ADE9449
:103528004C4CD4985858E8B0CFCF4A85D0D06BBB14
:10353800EFEF2AC5AAAAE54FFBFB16ED4343C58664
:103548004D4DD79A33335566858594114545CF8AB5
:10355800F9F910E9020206047F7F81FE5050F0A0BD
:103568003C3C44789F9FBA25A8A8E34B5151F3A24D
:10357800A3A3FE5D4040C0808F8F8A059292AD3F25
:103588009D9DBC2138384870F5F504F1BCBCDF635B
:10359800B6B6C177DADA75AF212163421010302050
:1035A800FFFF1AE5F3F30EFDD2D26DBFCDCD4C81EE
:1035B8000C0C141813133526ECEC2FC35F5FE1BE17
:1035C8009797A2354444CC881717392EC4C457930B
:1035D800A7A7F2557E7E82FC3D3D477A6464ACC85D
:1035E8005D5DE7BA19192B32737395E66060A0C068
:1035F800818198194F4FD19EDCDC7FA3222266443B
:103608002A2A7E549090AB3B8888830B4646CA8C06
:10361800EEEE29C7B8B8D36B14143C28DEDE79A7C0
:103628005E5EE2BC0B0B1D16DBDB76ADE0E03BDB40
:10363800323256643A3A4E740A0A1E144949DB92E9
:1036480006060A0C24246C485C5CE4B8C2C25D9F80
:10365800D3D36EBDACACEF436262A6C49191A839D6
:103668009595A431E4E437D379798BF2E7E732D53D
:10367800C8C8438B3737596E6D6DB7DA8D8D8C019D
:10368800D5D564B14E4ED29CA9A9E0496C6CB4D88A
:103698005656FAACF4F407F3EAEA25CF6565AFCAE3
:1036A8007A7A8EF4AEAEE94708081810BABAD56F20
:1036B800787888F025256F4A2E2E725C1C1C2438D9
:1036C800A6A6F157B4B4C773C6C65197E8E823CB8A
:1036D800DDDD7CA174749CE81F1F213E4B4BDD96F9
:1036E800BDBDDC618B8B860D8A8A850F707090E07A
:1036F8003E3E427CB5B5C4716666AACC4848D890AF
:1037080003030506F6F601F70E0E121C6161A3C24B
:1037180035355F6A5757F9AEB9B9D06986869117BA
:10372800C1C158991D1D273A9E9EB927E1E138D994
:10373800F8F813EB9898B32B111133226969BBD2AF
:10374800D9D970A98E8E89079494A7339B9BB62DDF
:103758001E1E223C87879215E9E920C9CECE4987EB
:103768005555FFAA28287850DFDF7AA58C8C8F035F
:10377800A1A1F859898980090D0D171ABFBFDA650B
:10378800E6E631D74242C6846868B8D04141C38270
:103798009999B0292D2D775A0F0F111EB0B0CB7BF8
:1037A8005454FCA8BBBBD66D16163A2CA5C6636349
:1037B80084F87C7C99EE77778DF67B7B0DFFF2F2AF
:1037C800BDD66B6BB1DE6F6F5491C5C5506030309C
:1037D80003020101A9CE67677D562B2B19E7FEFE70
:1037E80062B5D7D7E64DABAB9AEC7676458FCACAA9
:1037F8009D1F82824089C9C987FA7D7D15EFFAFA33
:10380800EBB25959C98E47470BFBF0F0EC41ADAD0F
:1038180067B3D4D4FD5FA2A2EA45AFAFBF239C9C97
:10382800F753A4A496E472725B9BC0C0C275B7B785
:103838001CE1FDFDAE3D93936A4C26265A6C363644
:10384800417E3F3F02F5F7F74F83CCCC5C683434B8
:10385800F451A5A534D1E5E508F9F1F193E27171C8
:1038680073ABD8D8536231313F2A15150C080404BC
:103878005295C7C7654623235E9DC3C328301818D1
:10388800A13796960F0A0505B52F9A9A090E0707CC
:10389800362412129B1B80803DDFE2E226CDEBEB43
:1038A800694E2727CD7FB2B29FEA75751B120909A9
:1038B8009E1D838374582C2C2E341A1A2D361B1BEC
:1038C800B2DC6E6EEEB45A5AFB5BA0A0F6A452525C
:1038D8004D763B3B61B7D6D6CE7DB3B37B52292913
:1038E8003EDDE3E3715E2F2F97138484F5A65353CF
:1038F80068B9D1D1000000002CC1EDED6040202056
:103908001FE3FCFCC879B1B1EDB65B5BBED46A6A53
:10391800468DCBCBD967BEBE4B723939DE944A4A45
:10392800D4984C4CE8B058584A85CFCF6BBBD0D010
:103938002AC5EFEFE54FAAAA16EDFBFBC586434360
:10394800D79A4D4D5566333394118585CF8A4545B1
:1039580010E9F9F90604020281FE7F7FF0A05050B9
:1039680044783C3CBA259F9FE34BA8A8F3A2515149
:10397800FE5DA3A3C08040408A058F8FAD3F929221
:10398800BC219D9D4870383804F1F5F5DF63BCBC57
:10399800C177B6B675AFDADA63422121302010104C
:1039A8001AE5FFFF0EFDF3F36DBFD2D24C81CDCDEA
:1039B80014180C0C352613132FC3ECECE1BE5F5F13
:1039C800A2359797CC884444392E17175793C4C407
:1039D800F255A7A782FC7E7E477A3D3DACC8646459
:1039E800E7BA5D5D2B32191995E67373A0C0606064
:1039F80098198181D19E4F4F7FA3DCDC6644222237
:103A08007E542A2AAB3B9090830B8888CA8C464602
:103A180029C7EEEED36BB8B83C28141479A7DEDEBC
:103A2800E2BC5E5E1D160B0B76ADDBDB3BDBE0E03C
:103A3800566432324E743A3A1E140A0ADB924949E5
:103A48000A0C06066C482424E4B85C5C5D9FC2C27C
:103A58006EBDD3D3EF43ACACA6C46262A8399191D2
:103A6800A431959537D3E4E48BF2797932D5E7E739
:103A7800438BC8C8596E3737B7DA6D6D8C018D8D99
:103A880064B1D5D5D29C4E4EE049A9A9B4D86C6C86
:103A9800FAAC565607F3F4F425CFEAEAAFCA6565DF
:103AA8008EF47A7AE947AEAE18100808D56FBABA1C
:103AB80088F078786F4A2525725C2E2E24381C1CD5
:103AC800F157A6A6C773B4B45197C6C623CBE8E886
:103AD8007CA1DDDD9CE87474213E1F1FDD964B4BF5
:103AE800DC61BDBD860D8B8B850F8A8A90E0707076
:103AF800427C3E3EC471B5B5AACC6666D8904848AB
:103B08000506030301F7F6F6121C0E0EA3C2616147
:103B18005F6A3535F9AE5757D069B9B991178686B6
:103B28005899C1C1273A1D1DB9279E9E38D9E1E190
:103B380013EBF8F8B32B989833221111BBD26969AB
:103B480070A9D9D989078E8EA7339494B62D9B9BDB
:103B5800223C1E1E9215878720C9E9E94987CECEE7
:103B6800FFAA5555785028287AA5DFDF8F038C8C5B
:103B7800F859A1A180098989171A0D0DDA65BFBF07
:103B880031D7E6E6C6844242B8D06868C38241416C
:103B9800B0299999775A2D2D111E0F0FCB7BB0B0F4
:103BA800FCA85454D66DBBBB3A2C161663A5C66345
:103BB8007C84F87C7799EE777B8DF67BF20DFFF2AB
:103BC8006BBDD66B6FB1DE6FC55491C53050603098
:103BD8000103020167A9CE672B7D562BFE19E7FE6C
:103BE800D762B5D7ABE64DAB769AEC76CA458FCAA5
:103BF800829D1F82C94089C97D87FA7DFA15EFFA2F
:103C080059EBB25947C98E47F00BFBF0ADEC41AD0B
:103C1800D467B3D4A2FD5FA2AFEA45AF9CBF239C93
:103C2800A4F753A47296E472C05B9BC0B7C275B781
:103C3800FD1CE1FD93AE3D93266A4C26365A6C3640
:103C48003F417E3FF702F5F7CC4F83CC345C6834B4
:103C5800A5F451A5E534D1E5F108F9F17193E271C4
:103C6800D873ABD831536231153F2A15040C0804B8
:103C7800C75295C723654623C35E9DC318283018CD
:103C880096A13796050F0A059AB52F9A07090E07C8
:103C980012362412809B1B80E23DDFE2EB26CDEB3F
:103CA80027694E27B2CD7FB2759FEA75091B1209A5
:103CB800839E1D832C74582C1A2E341A1B2D361BE8
:103CC8006EB2DC6E5AEEB45AA0FB5BA052F6A45258
:103CD8003B4D763BD661B7D6B3CE7DB3297B52290F
:103CE800E33EDDE32F715E2F8497138453F5A653CB
:103CF800D168B9D100000000ED2CC1ED2060402052
:103D0800FC1FE3FCB1C879B15BEDB65B6ABED46A4F
:103D1800CB468DCBBED967BE394B72394ADE944A41
:103D28004CD4984C58E8B058CF4A85CFD06BBBD00C
:103D3800EF2AC5EFAAE54FAAFB16EDFB43C586435C
:103D48004DD79A4D335566338594118545CF8A45AD
:103D5800F910E9F9020604027F81FE7F50F0A050B5
:103D68003C44783C9FBA259FA8E34BA851F3A25145
:103D7800A3FE5DA340C080408F8A058F92AD3F921D
:103D88009DBC219D38487038F504F1F5BCDF63BC53
:103D9800B6C177B6DA75AFDA216342211030201048
:103DA800FF1AE5FFF30EFDF3D26DBFD2CD4C81CDE6
:103DB8000C14180C13352613EC2FC3EC5FE1BE5F0F
:103DC80097A2359744CC884417392E17C45793C403
:103DD800A7F255A77E82FC7E3D477A3D64ACC86455
:103DE8005DE7BA5D192B32197395E67360A0C06060
:103DF800819819814FD19E4FDC7FA3DC2266442233
:103E08002A7E542A90AB3B9088830B8846CA8C46FE
:103E1800EE29C7EEB8D36BB8143C2814DE79A7DEB8
:103E28005EE2BC5E0B1D160BDB76ADDBE03BDBE038
:103E3800325664323A4E743A0A1E140A49DB9249E1
:103E4800060A0C06246C48245CE4B85CC25D9FC278
:103E5800D36EBDD3ACEF43AC62A6C46291A83991CE
:103E680095A43195E437D3E4798BF279E732D5E735
:103E7800C8438BC837596E376DB7DA6D8D8C018D95
:103E8800D564B1D54ED29C4EA9E049A96CB4D86C82
:103E980056FAAC56F407F3F4EA25CFEA65AFCA65DB
:103EA8007A8EF47AAEE947AE08181008BAD56FBA18
:103EB8007888F078256F4A252E725C2E1C24381CD1
:103EC800A6F157A6B4C773B4C65197C6E823CBE882
:103ED800DD7CA1DD749CE8741F213E1F4BDD964BF1
:103EE800BDDC61BD8B860D8B8A850F8A7090E07072
:103EF8003E427C3EB5C471B566AACC6648D89048A7
:103F080003050603F601F7F60E121C0E61A3C26143
:103F1800355F6A3557F9AE57B9D069B986911786B2
:103F2800C15899C11D273A1D9EB9279EE138D9E18C
:103F3800F813EBF898B32B981133221169BBD269A7
:103F4800D970A9D98E89078E94A733949BB62D9BD7
:103F58001E223C1E87921587E920C9E9CE4987CEE3
:103F680055FFAA5528785028DF7AA5DF8C8F038C57
:103F7800A1F859A1898009890D171A0DBFDA65BF03
:103F8800E631D7E642C6844268B8D06841C3824168
:103F980099B029992D775A2D0F111E0FB0CB7BB0F0
:103FA80054FCA854BBD66DBB163A2C1652096AD5D8
:103FB8003036A538BF40A39E81F3D7FB7CE3398216
:103FC8009B2FFF87348E4344C4DEE9CB547B943265
:103FD800A6C2233DEE4C950B42FAC34E082EA166AD
:103FE80028D924B2765BA2496D8BD12572F8F66484
:103FF80086689816D4A45CCC5D65B6926C704850FF
:10400800FDEDB9DA5E154657A78D9D8490D8AB00B3
:104018008CBCD30AF7E45805B8B34506D02C1E8FDC
:10402800CA3F0F02C1AFBD0301138A6B3A91114118
:104038004F67DCEA97F2CFCEF0B4E67396AC742201
:10404800E7AD3585E2F937E81C75DF6E47F11A717F
:104058001D29C5896FB7620EAA18BE1BFC563E4BB8
:10406800C6D279209ADBC0FE78CD5AF41FDDA8337A
:104078008807C731B11210592780EC5F60517FA9BA
:1040880019B54A0D2DE57A9F93C99CEFA0E03B4DE9
:10409800AE2AF5B0C8EBBB3C83539961172B047E5D
:1040A800BA77D626E169146355210C7D2B7E151647
:1040B80028AED2A6ABF7158809CF4F3C0000000008
:0440C800F1010008FA
:0440CC00C90100081E
:0400000508001E25AC
:00000001FF
